:100000000C9427030C946E030C946E030C946E03F3
:100010000C946E030C946E030C946E030C946E039C
:100020000C946E030C946E030C942E280C940029EF
:100030000C946D200C946E030C946E030C946E0360
:100040000C946E030C946E030C946E030C946E036C
:100050000C9460100C94BA200C946E030C946E03F4
:100060000C946E030C946E030C946E030C946E034C
:100070000C946E030C946E030C946E030C946E033C
:100080000C946E030C946E030C946E030C946E032C
:100090000C946E030C946E030C946E030C946E031C
:1000A0000C946E030C946E030C946E03580E5B0E4E
:1000B000630E680E6D0E720E770E7C0E810E860E2C
:1000C0008B0E900E920E950E980E9B0E9E0EA10E0C
:1000D000A30EA80EC80FCA0FCF0FD20FD50FD80F7F
:1000E000DB0FFE15FE15301630167D169B16F31726
:1000F000F317DD16721783178317E317F317F31738
:10010000EC17881888189A189A1891189A189A183B
:100110009A188818881896189A189A1896186D2997
:1001200094298C2A94298C2AE029032A8C2A5A2A79
:10013000692A29001E001F00200021002200230040
:1001400024002500260027002D002E003100350058
:100150004C002B00000014001A00080015001700C6
:100160001C0018000C00120013002F0030002A00A1
:100170004B003900000004001600070009000A00C7
:100180000B000D000E000F003300340028000000AB
:100190004E00E100E1001D001B00060019000500F3
:1001A000110010003600370038000000E500520052
:1001B0004A00E000E2000000E30000002C00000024
:1001C0002C002C000000E6000151000050005100FE
:1001D0004F0001003A003B003C003D003E003F0064
:1001E000400041004200430044004500010001007E
:1001F000A80001000000C25CC35CC45CC55CC65CB6
:10020000C75CC85CC95CCA5CCB5CCC5C48000100C4
:1002100001000100000001000100010001000100D7
:1002200001000100010001000100010001000000C7
:10023000A90001000100010001000100010001000E
:1002400001000100010001000100000001004B005D
:10025000AA000100010000000100000001000000F0
:100260000100010000000100010000004A004E00F2
:100270004D0032190A00047F3F1F643214643214A7
:10028000783C1E1E140A052223252628292A2C2DF7
:100290002F3032333536383A3B3D3E4042434547B6
:1002A000494A4C4E5051535557595A5C5E606264EE
:1002B0006668696B6D6F71737577797B7D7F8183FC
:1002C0008587898A8C8E90929496989A9C9E9FA1FD
:1002D000A3A5A7A8AAACAEAFB1B3B4B6B8B9BBBC1E
:1002E000BEBFC1C2C3C5C6C7C9CACBCCCDCED0D193
:1002F000D2D2D3D4D5D6D7D7D8D9D9DADADBDBDB8B
:10030000DCDCDCDCDCDDDDDDDDDCDCDCDCDCDBDB2B
:10031000DBDADAD9D9D8D7D7D6D5D4D3D2D2D1D07F
:10032000CECDCCCBCAC9C7C6C5C3C2C1BFBEBCBB7C
:10033000B9B8B6B4B3B1AFAEACAAA8A7A5A3A19FF4
:100340009E9C9A98969492908E8C8A8987858381B8
:100350007F7D7B79777573716F6D6B696866646299
:10036000605E5C5A5957555351504E4C4A49474567
:100370004342403E3D3B3A3836353332302F2D2C08
:100380002A292826252322FFAA7F554000000000A5
:100390000000000000000001010203040506080A35
:1003A0000C0F1114181C2024292E33393F464C53AE
:1003B0005B626A7179818A929AA2AAB2B9C1C8CFE6
:1003C000D5DCE1E7EBF0F4F7FAFCFDFEFFFEFDFC07
:1003D000FAF7F4F0EBE7E1DCD5CFC8C1B9B2AAA2D5
:1003E0009A928A8179716A625B534C463F39332E07
:1003F0002924201C1814110F0C0A080605040302F6
:1004000001010000000000000000000000010101E7
:1004100001010101010102020202020202020203C1
:100420000303030303030304040404040404050591
:100430000505050606060606070707070708080854
:1004400008090909090A0A0A0B0B0B0C0C0C0D0D03
:100450000D0E0E0E0F0F0F1010111111121213139B
:100460001414151516161717181819191A1A1B1B14
:100470001C1D1D1E1E1F2020212222232424252670
:1004800026272829292A2B2C2D2D2E2F30313232A8
:10049000333435363738393A3B3C3D3E3F404142B4
:1004A000434445464748494A4C4D4E4F505153549A
:1004B000555658595A5B5D5E5F616264656668694E
:1004C0006B6C6D6F7072737577787A7B7D7E8082CE
:1004D000838587888A8C8E8F91939596989A9C9E17
:1004E000A0A2A3A5A7A9ABADAFB1B3B5B7BABCBE27
:1004F000C0C2C4C6C9CBCDCFD1D4D6D8DBDDDFE2F4
:10050000E4E7E9EBEEF0F3F5F8FAFDFF0403300061
:1005100000001003530070006100630065003600A6
:100520003500000016034700720061007900730077
:1005300074007500640069006F0000000403090482
:1005400009023B00020100A0FA09040000010301B6
:100550000100092111010001224000070581030863
:10056000000A090401000103000000092111010033
:10057000012281000705820320000A1201100100F8
:100580000000085347003001000102030105010982
:1005900002A10185020901A100050919012905151A
:1005A00000250195057501810295017503810105FD
:1005B00001093009311581257F95027508810609E9
:1005C000381581257F950175088106050C0A3802CA
:1005D0001581257F950175088106C0C00501098038
:1005E000A101850319012AB700150126B70095015D
:1005F00075108100C0050C0901A101850419012AAB
:10060000A002150126A002950175108100C0050108
:100610000906A101050719E029E71500250195083C
:10062000750181029501750881010507190029FFEF
:10063000150026FF00950675088100050819012997
:1006400005950575019102950175039101C011246D
:100650001FBECFEFDAE0DEBFCDBF04B603FE27C07A
:100660008091F1029091F202A091F302B091F40214
:100670008730904BA740B04BD1F41092F10210920A
:10068000F2021092F3021092F40214BE84B7877F34
:1006900084BF0FB6F894A89580916000886180931C
:1006A0006000109260000FBEE0E0F8E3099511E0F1
:1006B000A0E0B1E0ECE5F8E502C005900D92AE3C9B
:1006C000B107D9F722E0AEECB1E001C01D92A13F25
:1006D000B207E1F70E945D250C942C2C0C940000CD
:1006E0006E9A0C9462060C9460060C94800381FF51
:1006F00002C0769801C0769A0C94DA0381E00895DE
:1007000081E0089508950C9482031F93CF93DF93A3
:1007100000D000D01F92CDB7DEB749835A836B83D8
:100720003091130289819A81311114C0662359F0E6
:10073000222349F00E94C11D182F682F89819A81B8
:100740000E946A1D03C00E94951D182F69817A813D
:10075000812F04C00E94C11D69817A810F900F9082
:100760000F900F900F90DF91CF911F910C94450443
:10077000FC01262F408151816281738184810C9418
:100780008503CF93DF93EC0160E00E94B803BE01C4
:10079000DF91CF910C9483030E9406210E94F91EE1
:1007A000811102C00E94A21F0E94CF100C947003FE
:1007B0000C947303089581E008950C94DB03CF93A8
:1007C000C82F0E9477038C2F0E94DD03CF910895DC
:1007D00008950E9476180E94E8032FEF84E39CE0BE
:1007E000215080409040E1F700C000000C94E020D0
:1007F0000F931F93CF93DF93EC0161E00E94B80346
:100800008C01BE010E9475038823A9F1BE01C801B5
:100810000E94B90F882379F1BE01C8010E94981186
:10082000882349F1BE01C8010E94D911882319F11A
:10083000BE01C8010E9404138823E9F0BE01C8016B
:100840000E94410E8823B9F08A81882369F001153E
:100850008CE5180731F00E3D1C4531F40E94A21FB3
:100860000AC00E94E90307C0CE01DF91CF911F911A
:100870000F910C947E0380E0DF91CF911F910F9137
:10088000089580E090E008950895E72FF0E095E066
:10089000899FE00DF11D112484E0EE0FFF1F8A9562
:1008A000E1F7E60FF11DEE0FFF1FEE5CFE4F8591A5
:1008B00094910895880F991FFC01EE58FD4F859182
:1008C00094910895CF93DF930E9445040E947A0586
:1008D000EC018115904508F041C0C11580E4D807AE
:1008E00008F0D1C0C83ED10510F5C03ED10508F0D2
:1008F000FDC0C83AD10578F4C53AD10508F0A2C0C8
:10090000C130D10509F4F2C008F4EEC0C430D105FD
:1009100008F0ECC0E9C0CF3BD10508F49BC0C03C57
:10092000D10508F4E1C0CE01805C91099EC0C115DB
:1009300090E2D90758F4C11521E0D20708F0D6C0DB
:10094000C03FD10508F4D0C0D065D0C0C11580E348
:10095000D80708F08EC0CE019F7087C0C11595E5FD
:10096000D90708F043C0C11524E5D20708F0A2C09A
:10097000C11582E5D80708F5C11591E5D90708F03A
:1009800085C0CE0174E0969587957A95E1F78370DE
:100990009C2F937021E030E002C0220F331F9A9504
:1009A000E2F73C68382BCF70C695C69580E2C89FA9
:1009B000E0011124C22BD32B99C09E012370332751
:1009C0008C2F86958695C115D34508F064C0C1E08B
:1009D000D0E002C0CC0FDD1F2A95E2F720E2829F13
:1009E000C0011124C82BD92BDC6880C0C11529E5B2
:1009F000D207A0F4C11588E5D80708F060C0C1157A
:100A000096E5D90708F070C08C2F0E940E068F71F2
:100A1000C82FD0E0DC2FCC27D06268C0C1152AE5F2
:100A2000D20708F451C0CE0190568115904208F0CB
:100A30005BC08D2F8F710E940E06DD27D0628F71F3
:100A4000D82B54C0C55AD0E0C65ADE4FC881D0E07A
:100A5000D0644CC0C85AD0E0CC0FDD1FC45DDE4F5F
:100A60000990D881C02DD46441C00E945A04EC0181
:100A70003DC0CE019927D3FF03C0EC01D86C36C02E
:100A8000EC01D06C33C0DF70D06A30C0DC2FCC27D3
:100A9000C16FD06A2BC0C1E0D0E002C0CC0FDD1F17
:100AA0002A95E2F720E2829FC0011124C82BD92B9E
:100AB000DA681CC0DC2FCC27C46FD06A17C0DC2FCB
:100AC000CC27C06FD06A12C08C2F8F700E940E0688
:100AD00094E0D695C7959A95E1F7CF70D0E0DC2FDA
:100AE000CC27D069C82B02C0C0E0D0E0CE01DF9196
:100AF000CF9108958238910569F1B0F48133910561
:100B000009F46DC048F48932910509F463C08A3252
:100B1000910509F469C008958533910509F455C01C
:100B200089339105B9F00895833E910569F138F450
:100B3000803E9105B1F0823E910509F10895863E0F
:100B40009105A9F1873E9105B9F1843E910509F01F
:100B500064C023C02091E20220FD4FC021FD4DC0A2
:100B600008958091E20280FD44C08091E30280FFFD
:100B700044C08091E20284FD42C083EE4DC080916A
:100B8000E20282FF38C0F5CF8091E20282FD33C0DD
:100B90008091E30280FD31C0ECCF8091E30281FFC0
:100BA00032C08091E20284FD2AC087EE35C0809178
:100BB000E20283FF26C0F5CF8091E20283FD21C0CF
:100BC0008091E30281FD1FC0ECCF8091E20285FDA0
:100BD0001CC01DC08091E20285FD19C016C0809125
:100BE000E20286FD16C017C08091E20286FD13C0A6
:100BF00010C089E311C082EE0FC080EE0DC080E00E
:100C00000BC086EE09C084EE07C089E205C085E30B
:100C100003C08AE201C081E390E008959091E2026E
:100C200092FF0DC0282F2871283019F4877F846027
:100C300006C0282F2471243011F48B7F886093FF25
:100C40000DC0282F2871283119F4877E846106C0D1
:100C5000282F2471243111F48B7E88612091E302C6
:100C600020FF0DC0382F3871383019F4877F81602C
:100C700006C0382F3171313011F48E7F886021FF2A
:100C80000DC0282F2871283119F4877E816106C094
:100C9000282F2171213111F48E7E886194FD877E89
:100CA0000895E82FF0E0EE0FFF1FE654FD4F80811E
:100CB00091810895089580EA8A95F1F7089508953D
:100CC0000C945F060C945F06CF93DF93ADE6B1E022
:100CD00042E751E061E070E08D91E82FE295EF701E
:100CE000F0E021A18F70EB0102C0CC0FDD1F8A95CF
:100CF000E2F7CE019C2F9095922391A392A1892B8C
:100D000082A34A175B0741F7ADE5B1E04DE651E03C
:100D100061E070E08D91E82FE295EF70F0E021A1A5
:100D20008F70EB0102C0CC0FDD1F8A95E2F7CE0178
:100D30009C2F9095922391A392A1892B82A34A176D
:100D40005B0741F7E0EBF2E0AAEBB2E08AEB92E05E
:100D5000119211921D921D928E179F07C9F785E07F
:100D60000E945307DF91CF910C94CC032F923F92B6
:100D70004F925F926F927F928F929F92AF92BF92AB
:100D8000CF92DF92EF92FF920F931F93CF93DF9357
:100D90008DE6C82E81E0D82E00EB12E09AEB492EAA
:100DA00092E0592E312C88248394912C5801D8013B
:100DB0006D907C9011971D921C92F60181916F01AC
:100DC000C82FC295CF70D0E099A18F70740101C077
:100DD000EE0C8A95EAF7892F8E2989A38AA12E2CF9
:100DE000209482218AA30E945B06EDE5F1E020E0D9
:100DF00030E06191A62FA295AF70B0E090968C91F3
:100E0000D8014D915C9190E06F7002C095958795E7
:100E10006A95E2F780FD08C0C401022E02C0880F67
:100E2000991F0A94E2F702C080E090E0482B592B0A
:100E3000D8014D935C932F5F3F4F20313105C9F6A8
:100E400089A1282229A28AA1E82AEAA20E5F1F4FBF
:100E500081E0F501208131812615370509F480E014
:100E6000382A4016510609F0A1CF232D45E06AEB40
:100E700072E080EB92E00E9454070E94D803832D19
:100E8000DF91CF911F910F91FF90EF90DF90CF9066
:100E9000BF90AF909F908F907F906F905F904F909A
:100EA0003F902F9008950895FF920F931F93CF9333
:100EB000DF93F82E092F162FD72FC42F222349F0A6
:100EC00081E08093D0010E949F209093CF01809376
:100ED000CE018091D0018823D9F08091CE019091EC
:100EE000CF010E94AB20069798F0EF2DF02FA12F95
:100EF000BD2F80E090E04C2F50E08417950734F42C
:100F0000219131912D933D930196F7CF1092D0010D
:100F1000DF91CF911F910F91FF900895EF92FF9273
:100F20000F931F93CF93DF93F62E472FE82FF0E018
:100F3000711106C0E45FFB4F6491762F862F72C05B
:100F4000272F30E0E45FFB4FE4910E2F10E056E0D6
:100F5000659FC0011124CFEFD0E0BE010E94EA2AB4
:100F60005BEA5603C001579F900D11248F0D911D10
:100F70008F0D911D982F990F890F7E01E21AF30AA8
:100F8000E09ED001E19EB00DF09EB00D1124489F6F
:100F9000A0011124452F55277E01E41AF50AE09E91
:100FA000A001E19E500DF09E500D11247E01E81A23
:100FB000F108E29EC001E39E900DF29E900D112477
:100FC000892F9927C81BD90BC09FC001C19F900DC5
:100FD000D09F900D11246230710591F048F4611595
:100FE0007105E1F061307105A9F48B2F752F19C0DF
:100FF0006430710561F038F06630710579F00AC02F
:10100000892F7B2F0EC08E2F7B2FE52F0AC08E2FAE
:10101000792F02C0852F7E2FEB2F03C08B2F7E2FC1
:10102000E92F6E2FDF91CF911F910F91FF90EF90DD
:1010300008950895CF93DF93762FE901682F842FC9
:101040000E948E07798368838A83DF91CF91089508
:101050008091C402282F269530E02115310519F41E
:101060008170826005C02B32310524F08170846567
:101070008093C402089588E090E00C94C52BCF9231
:10108000DF92EF92FF926B017C010E942808B7016A
:10109000A60188E090E0FF90EF90DF90CF900C9455
:1010A000E32BE4ECF2E083E0808311828FEF828314
:1010B0008383148260817181828193810C943F08C3
:1010C0008091C40280FF02C08695089580E0089553
:1010D0008091C802833018F48F5F8093C8026091BA
:1010E000C4027091C5028091C6029091C7020C940F
:1010F0003F088091C802882319F081508093C8026C
:101100006091C4027091C5028091C6029091C7029D
:101110000C943F0870E00C942111609107018091BC
:10112000C40280FF0AC08091060123E0829FC001B3
:10113000112487539D4F0C948A0880910801909147
:101140000901891780F7E82FF0E09F01220F331F74
:10115000E20FF31FE753FD4F1182108212828F5F5F
:10116000F0CF9091C40290FF16C090910801209199
:101170000901921770F4E92FF0E0DF01AA0FBB1FFD
:10118000EA0FFB1FE753FD4F8183608342839F5F1C
:10119000F0CF0C948D080895CF93DF9300D01F9269
:1011A000CDB7DEB79091C40290FF0AC09E012F5FB9
:1011B0003F4F0E941A084B8169818A810E94B108C1
:1011C0000F900F900F90DF91CF910895CF93DF9301
:1011D000EC01EC81F0E0E957FD4F4491E4ECF2E0E2
:1011E000628181810E94CC088C818F5F8C83DF912A
:1011F000CF910895CF93DF93EC01E4ECF2E04381CB
:1012000062818C810E94CC088C818F5F8C83DF91FE
:10121000CF9108950F931F93CF93DF9300D01F9228
:10122000CDB7DEB78C018091D10181110AC09E013A
:101230002F5F3F4F4FEF6FEF0E941A088A81809314
:10124000D101F8018481813051F028F0823061F4BD
:101250004091D1010AC08091D10140E007C0609166
:10126000D10140E080E003C040E080E060E00E9407
:10127000B108F801848190E0019663E070E00E947B
:10128000FE2A84830F900F900F90DF91CF911F91D2
:101290000F910895AF92BF92CF92DF92EF92FF929B
:1012A0000F931F93CF93DF9300D01F92CDB7DEB77C
:1012B000182FF62E042FE22E9091C40290FF6DC0DD
:1012C000E92FE695AE2FB0E0AE58BE4F8C918093DB
:1012D000F9019E7F923061F49E012F5F3F4F812F75
:1012E0000E941A084B8169818A810E94B10843C01B
:1012F000823019F40091C7023EC0863019F4109173
:10130000C50239C08930D9F38931A9F5E9518E2F49
:101310008170D82EE695F0E0E957FC4FA590B49087
:10132000C12CBB2460910A01C61618F52C2D30E0A3
:10133000A29EC001A39E900DB29E900D112470E05C
:101340000E94EA2A812FD11002C0860F01C0861B9D
:1013500090910801290F311DA901440F551F240F39
:10136000351F27533D4F402F6F2D0E941A08C394FD
:10137000D9CF0E948D081093C502F092C602009347
:10138000C702EE2051F06091C4027091C5028091B5
:10139000C6029091C7020E943F080F900F900F90D5
:1013A000DF91CF911F910F91FF90EF90DF90CF9041
:1013B000BF90AF900895E4ECF2E09181282F438133
:1013C000628188E0890F0C944A0981E00C94DB0962
:1013D000E4ECF2E09181282F4381628188EF890F4C
:1013E0000C944A0981E00C94E809E4ECF2E0628193
:1013F00028E0620F08F46FEF282F438181810C945D
:101400004A0981E00C94F509E4ECF2E0628128E0FD
:10141000621B08F460E0282F438181810C944A0903
:1014200081E00C94040AE4ECF2E0438128E0420FEE
:1014300008F44FEF282F628181810C944A0981E0E2
:101440000C94130AE4ECF2E0438128E0421B08F418
:1014500040E0282F628181810C944A0981E00C943C
:10146000220A20E00C944A09FF920F931F93CF9316
:10147000DF93EC01F12C0FEF10E060910A01F616FA
:10148000F0F4809108012F2D30E0280F311DC901A3
:10149000880F991F280F391F27533D4F70E0C8014F
:1014A0000E94FE2A962F8C814091C7026091C6024D
:1014B000F99E800D11240E941A08F394DECF0E9439
:1014C0008D089A818C8190FF02C08F5F01C081508E
:1014D0008C83DF91CF911F910F91FF900895AF9270
:1014E000BF92CF92DF92EF92FF920F931F93CF9311
:1014F000DF93FC01828180FF02C00FEF01C001E099
:1015000010E046E0A42E80910A01181708F043C0AD
:1015100080910801C12ED12CE601C80FD11DCE014A
:10152000880F991FC80FD91FC753DD4F1982188222
:101530001A8234E0E32EF12CB12C8091D3018B0D73
:1015400087302CF06A2D0E94DC2A892F05C087FF86
:1015500003C090910A01890F082E000C990BC81640
:10156000D90691F48091C7028E9DA0018F9D500DE8
:10157000112455954795559547959E016091C60252
:101580008091C5020E941A08B00EF1E0EF1AF1082E
:10159000A1F61F5FB8CF0E948D088091D301013062
:1015A00031F4811102C080910A01815007C090E09E
:1015B000019660910A0170E00E94FE2A8093D30197
:1015C000DF91CF911F910F91FF90EF90DF90CF901F
:1015D000BF90AF900895CF93809108019091090139
:1015E000891770F4E82FF0E09F01220F331FE20FFC
:1015F000F31FE753FD4F1182108212828F5FF0CFED
:10160000C0E060910A01C617C0F5EC2FF0E070E071
:10161000CF010E94FE2A20910801820F2091D20161
:10162000022E000C330B90E0E217F307CCF0209170
:101630000501022E000C330B2E173F078CF09C0186
:10164000220F331F820F931F9C0127533D4F409160
:10165000C7026091C6028091C5020E941A080BC0A1
:10166000FC01EE0FFF1F8E0F9F1FFC01E753FD4F84
:10167000118210821282CF5FC4CF0E948D08209108
:1016800004018091D201820F8093D20190910501D3
:10169000920F9093050119165CF4082E000C990B1B
:1016A00040910A0150E041505109841795071CF000
:1016B000219520930401CF9108950F931F93CF9309
:1016C000DF938C01FC0184819581019681709927BB
:1016D00095838483C0E0D5E580910A01C81700F5A1
:1016E000809108012C2F30E0280F311DC901880F8F
:1016F000991F280F391F27533D4F4C2F4695F8014E
:1017000084819581840F911D81704091C702609101
:10171000C6028D9F802D11240E941A08CF5FDCCF56
:10172000DF91CF911F910F910C948D080F931F9310
:10173000CF93DF93EC0100E010E080910A01282FA5
:1017400030E00217130724F5909108019801290F42
:10175000311DA901440F551F240F351F27533D4F3D
:10176000869590E04C81081719071CF4442331F04A
:1017700002C0411103C04091C70201C040E0609126
:10178000C6028091C5020E941A080F5F1F4FD5CF75
:101790000E948D088C8190E00196817099278C833E
:1017A000DF91CF911F910F9108958F929F92AF92E9
:1017B000BF92CF92DF92EF92FF920F931F93CF933E
:1017C000DF93FC01B280948081E0848300E015E027
:1017D0005BE4A52E88248394EE24EA94F12C7BE428
:1017E000C72ED12C80910A01081708F08FC0C02F96
:1017F000D0E01C9FF0011D9FF00D1124EC52FE4F14
:10180000911003C01382128267C02381222389F1C1
:10181000215023833481332319F09A2D921B01C068
:10182000922F8091C7021C9FF0011D9FF00D112483
:10183000EC52FE4F899FC0011124B6010E94EA2A92
:101840006283211104C0332311F01482A38222E0A9
:101850002B1508F441C01C9FF0011D9FF00D1124B1
:10186000EC52FE4F8091C50280838091C602818335
:1018700033C00E94A02B8230914074F582E08B151A
:1018800030F40E94A02BB7010E94FE2A02C0809172
:10189000C5021C9FF0011D9FF00D1124EC52FE4F5C
:1018A000808322E02B1558F40E94A02B2091C602C1
:1018B0002695622F70E00E94FE2A820F02C080915E
:1018C000C6021C9FF0011D9FF00D1124EC52FE4F2B
:1018D00081831282A3828482809108019E01280F55
:1018E000311DC901880F991F280F391F27533D4FFC
:1018F0001C9FF0011D9FF00D1124EC52FE4F428100
:10190000618180810E941A080F5F6CCFDF91CF91B7
:101910001F910F91FF90EF90DF90CF90BF90AF900D
:101920009F908F900C948D08E4ECF2E080818E7F84
:10193000808360817181828193810E943F0810922F
:10194000FA012FEF80E792E0215080409040E1F7CC
:1019500000C000000C948D08E4ECF2E080818E7FE2
:1019600080831092FA012FEF80E792E021508040AF
:101970009040E1F700C000000C948D086091C40213
:10198000669570E04BE050E08BE091E00E94B02B58
:10199000892B19F481E08093FA010E949F20909393
:1019A000F3018093F20108959091C40290FF35C035
:1019B0009170811102C0926006C08B3210F0946564
:1019C00002C0880F982B9093C402662351F0609157
:1019D000C4027091C5028091C6029091C7020E9414
:1019E0003F086091C402669570E04BE050E08BE0E8
:1019F00091E00E94B02B892B19F01092FA0102C0DD
:101A00000E94BE0C81E08093F5014091C702609175
:101A1000C6028091C5020C94310A0895682F9091F6
:101A2000C402969581E0890F8B3208F081E00C9416
:101A3000D40C81E00C940E0D682F9091C402969501
:101A40008FEF890F09F48AE20C94D40C81E00C9496
:101A50001C0D61E00C94D40CE4ECF2E08081816018
:101A6000808386950C94290D8091C40280FD0C948E
:101A7000940C0C942C0D60E00C94D40C8091F80123
:101A800081112EC00E94F91E811104C00E94A21F64
:101A90000E9451080E943B086093C4027093C502E3
:101AA0008093C6029093C7026E7F61F40E94510832
:101AB0000E943B086093C4027093C5028093C602E3
:101AC0009093C7020E9428081092FA018091C402E4
:101AD00080FF03C086950E943B0D81E08093F80152
:101AE0000895E4ECF2E080818160808386950C9417
:101AF0003B0D1092FA0108950F931F93CF93DF933C
:101B00008091FA01882309F49CC08091F901E09149
:101B1000C402E695E81BE093F401823049F4F0E05A
:101B2000ED57FD4FE491CE2FD0E006EE18E059C0FE
:101B3000863049F4F0E0E058FD4FE491CE2FD0E03C
:101B40000AEF18E04EC0893051F4E695F0E0E35812
:101B5000FD4FE491CE2FD0E004E31AE042C08F3075
:101B600051F4E695F0E0E658FD4FE491CE2FD0E039
:101B70000FE61AE036C0853149F4F0E0E958FD4F30
:101B8000E491CE2FD0E00BEE1AE02BC08831D9F0D3
:101B9000833239F4E5E7F2E0C591D4910AE019E027
:101BA00020C08432A9F08532C1F48E2F63E00E94F8
:101BB000D02AE92FF0E0EE58FD4FE491CE2FD0E08F
:101BC00005ED1BE00EC0C8EED3E00DE51BE009C03B
:101BD000C4EFD1E006E91BE004C0C0EDD7E009E1A5
:101BE00018E08091F501882389F01092F5010E9498
:101BF0009F209E0120953095820F931F9093F301B3
:101C00008093F2011092F7011092F6018091F20197
:101C10009091F3010E94AB208C179D0790F0E0910A
:101C2000F201F091F301CE0FDF1FD093F301C093C7
:101C3000F20182EF91E0F801DF91CF911F910F91B6
:101C40000994DF91CF911F910F910895882311F08E
:101C5000FA0101C0FB010994CF93DF93C82FD62F5F
:101C60000E9460088C1740F00E9460088D1720F4D5
:101C7000DF91CF910C94190D8C2FDF91CF910C94A3
:101C8000290D0F931F93CF93FB01C281CC2309F43D
:101C900063C08C010E94421E8272F801E25CFC4526
:101CA000E431F10508F059C0EA5AFF4F0C94342B87
:101CB0000E94340D06C046E25DE069E17DE00E94CD
:101CC000260EC0E04AC049E15DE066E27DE0F7CF64
:101CD00042EF59E065EE79E0F2CF45EE59E062EF70
:101CE00079E0EDCF40E15AE061E07AE0E8CF41E011
:101CF0005AE060E17AE0E3CF4EE25AE06FE17AE049
:101D0000DECF4FE15AE06EE27AE0D9CF49E758E002
:101D100068E678E0D4CF48E658E069E778E0CFCFCE
:101D200081E017C065E082E010C068E086E00DC089
:101D30006EE089E00AC064E18FE007C067E185E1F9
:101D400004C088E106C062E289E10E942C0EB9CF8E
:101D500083E20E94290DB5CFC1E08C2FCF911F9156
:101D60000F9108958091DB0286958695869508955A
:101D70008091DB0281FD07C082608093DB020E94BC
:101D80002E1F0C944B1008958091DB0281FF07C039
:101D90008D7F8093DB020E942E1F0C9457100895B4
:101DA0008091DB0281FD0C94C40E0C94B80E8091DE
:101DB000DB028695817008958091160108950E9436
:101DC000F91E811102C00E94A21F0E942A1F809347
:101DD000DB02282F26952695269530E02630310502
:101DE00024F0877088628093DB028091DB0280FFA1
:101DF00004C086958695869501C080E00C942110DC
:101E00002091DB02822F869586958695482F50E09B
:101E10004530510554F48F5F982F990F990F990F02
:101E2000822F8770892B8093DB028091DB02816097
:101E30008093DB020E942E1F8091DB02869586959F
:101E400086950C9421108091DB02982F969596959B
:101E50009695A1F0915E990F990F990F8770892B34
:101E60008093DB02887F91E009F490E08091DB02AF
:101E700090FB80F98093DB020E942E1F8091DB0291
:101E80008695869586950C9421108091DB0280FDC5
:101E900013C081608093DB02813019F489E0809364
:101EA000DB028091DB020E942E1F8091DB0286956F
:101EB000869586950C94211008958091DB0280FF11
:101EC00008C08E7F8093DB020E942E1F80E00C945E
:101ED000211008958091DB0280FD0C945D0F0C941D
:101EE000450F9091DB02892F8695869586958F5FA9
:101EF0008F719770863038F4880F880F880F892B80
:101F00008093DB0202C09093DB028091DB02887F2A
:101F100091E009F490E08091DB0290FB80F98093DE
:101F2000DB020E942E1F8091DB02869586958695A6
:101F30000C942110863008F085E09091DB029770B8
:101F4000282F220F220F220F922B9093DB02987FD3
:101F500021E009F420E09091DB0220FB90F99093BE
:101F6000DB020C9421100E949A0F8091DB020C94EA
:101F70002E1FFC01DB0112968C918823F9F0EB5B9C
:101F8000FC45E730F105D8F4E659FF4F0C94342BAB
:101F900085E001C080E00E94B30F80E008950E94B8
:101FA000230FFBCF0E94000FF8CF0E946A0FF5CFDE
:101FB0000E94710FF2CF0E94D00EEFCF81E0089502
:101FC000279A2F9808952F980895CF92DF92EF9235
:101FD000FF928C3724E1920728F469E070E00E94B8
:101FE000EA2A29C0A0E0B0E08A50974DAF4FBF4F1A
:101FF0006627782F892F9A2F25EF38E241E050E0AD
:102000000E94122B69017A01CA01B9010E94C02AFB
:102010009B01AC01C701B6010E94C02ABB27A92FB2
:10202000982F872F009721E0A207B10511F0BC017E
:1020300002C06FEF7FEFCB01FF90EF90DF90CF906A
:102040000895CF93C82F863050F4811109C0809134
:102050008000877F809380000E94E30F06C0C5E068
:10206000809180008860809380002C2F30E0AFEF5B
:10207000BFEF0E943A2B25E030E040E050E00E94A4
:10208000122BC9010E94E50F90938D0080938C0064
:10209000CF91089508951092FC011092FB011092C7
:1020A000FD01EFE6F0E08081816080830895EFE636
:1020B000F0E080818E7F80830E94B20E0C9421100C
:1020C0001F920F920FB60F9211242F933F934F93AD
:1020D0005F936F937F938F939F93AF93BF93CF93B0
:1020E000EF93FF930E94DC0E4091FB015091FC01A5
:1020F0004F5F5F4F94EF899F90011124CA01B9018E
:102100000E94EA2A9093FC018093FB01B901660FBB
:10211000672F661F770B71950E94EA2A6F7780916F
:10212000FD01823019F4603451F404C0813039F477
:102130006F3729F480916F008E7F80936F00E62FB8
:10214000F0E0E457FC4FC4910E94B20E282F41E00A
:1021500051E0C49FC001C59F900D112465E070E05F
:102160000E94EA2A269FC001279F900D11240E94F9
:10217000E50F90938D0080938C00FF91EF91CF91AC
:10218000BF91AF919F918F917F916F915F914F918F
:102190003F912F910F900FBE0F901F9018950E94A6
:1021A000E00F8AE08093800089E1809381008FEFC7
:1021B0009FEF90938700809386000E94DF0E0E941D
:1021C000D70E81110C944B1008955DB1E42FEF7080
:1021D00021E030E001C0220FEA95EAF7352F322BDB
:1021E0003DB942954F70E42FF0E032A1422F409567
:1021F000342342A1242B4FB7F894FC01CB01880F64
:10220000991F680F791F6E0F7F1FE617F70789F078
:10221000819198E02EB9000000C087FF3EB9880F79
:10222000000000C000C000C03EB900C09A9591F700
:10223000ECCF4FBF87EC90E00197F1F700C00000B2
:10224000089542EC0C94E5100F931F93CF93DF9306
:10225000C62FD42F122FFC0182818823C9F06093EE
:1022600000020E949F209093FF018093FE0180E274
:102270008C0F883008F057C0C77081E001C0880F0C
:10228000CA95EAF7DF91CF911F910F910C94BE157B
:1022900080910002681330C08091FE019091FF018F
:1022A0000E94AB20883C910538F500E20D0FCD1758
:1022B000B9F080E28C0F883040F4C77081E001C033
:1022C000880FCA95EAF70E94C515083028F581E005
:1022D0009D2F977001C0880F9A95EAF70E94BE154E
:1022E000812F0E94AB150830F0F4D77081E001C057
:1022F000880FDA95EAF70AC080E28C0F883098F4EC
:10230000C77081E001C0880FCA95EAF7DF91CF91CD
:102310001F910F910C94C515812FDF91CF911F91C3
:102320000F910C94AB15DF91CF911F910F910895F0
:102330009C01CB01233F4CE53407F9F078F4283DAC
:10234000FCE53F07B9F0293D4CE5340711F1273D85
:102350003C4531F526E241EE61EE1EC0253FFCE52D
:102360003F0799F070F0263F3C45D1F427E245EE57
:1023700066EE12C027E245EE0EC026E241EE60EEA8
:102380000BC027E245EE64EE07C026E241EE62EEA6
:1023900003C028E241E065EE0E94241180E0089528
:1023A000FC018281882319F010920002089581E0D7
:1023B0000895CF93DF93EC01FB018281882309F418
:1023C0001FC1C230FCE5DF0708F41BC1C6319CE524
:1023D000D90738F09E012A5F3C452930310508F0C5
:1023E00010C10E940C1F9093E3028093E202C0315F
:1023F000ECE5DE0709F4C3C008F041C0C8308CE545
:10240000D80709F49AC0F0F4C430ECE5DE0709F40B
:1024100087C068F4C2308CE5D80709F477C0C330B0
:10242000DC4509F0E3C08091E202826076C0C630EC
:10243000ECE5DE0709F46EC008F07BC08091E20293
:1024400088606BC0CC308CE5D80709F485C068F48F
:10245000CA30ECE5DE0709F474C008F079C00E94C8
:1024600076188091E202806858C0CE308CE5D8079B
:1024700009F476C008F07FC08091E2028BC0CB3FA8
:10248000ECE5DE0709F44FC018F5C3318CE5D80739
:1024900009F47DC078F4C131ECE5DE0709F473C0BE
:1024A000C231DC4509F0A2C00E9476188091E20298
:1024B0008F7733C0C5318CE5D80709F472C008F4B2
:1024C00086C0CA3FDC4509F091C08091E3023EC05E
:1024D000CF3FFCE5DF0709F45FC058F4CD3F9CE532
:1024E000D90709F444C008F43FC08091E302826038
:1024F0002DC0C130FDE5DF0709F475C008F45DC0EB
:10250000C230DD4509F072C080E06EC08091E20209
:10251000816003C08091E20280618093E20266C024
:102520008091E20211C08091E30282608093E30215
:102530005DC08091E2028062F0CF8091E20280640F
:10254000ECCF8091E20288608460E7CF8160EECFBB
:102550008091E2028E7FE1CF8091E2028D7FDDCF1C
:102560008091E202877FD9CF8091E30218C08091E9
:10257000E3028D7FDBCF8091E2028F7ECECF809110
:10258000E2028F7DCACF8091E2028F7BC6CF80911D
:10259000E202877F8B7FC1CF8091E3028D7F8E7FA8
:1025A000C5CF8091E20282FB222720F991E0922799
:1025B00090FB82F990FB83F9B0CF8091E302982FD2
:1025C000909591708E7F892B90FB81F9AFCF0E94FF
:1025D00076188091E20287FB222720F991E092276A
:1025E00090FB87F99ACF81E00E94A41F8091E202BC
:1025F0009091E3020E941D1F0E94761880E001C0A6
:1026000081E0DF91CF910895CF93DF9386319C4590
:1026100041F5EB010E94421E982F8A8120911701FB
:1026200030911801882379F09A7A81E009F480E0EA
:1026300080930102911102C069E201C065E3C90102
:102640000E94EB1F0AC080910102811102C069E261
:1026500001C065E3C9010E94ED1F0E94901E80E049
:1026600001C081E0DF91CF9108959093070280939C
:1026700006020895E0910602F0910702309721F0DA
:102680000190F081E02D099480E00895E091060228
:10269000F0910702309721F00280F381E02D099438
:1026A0000895E0910602F0910702309739F022E098
:1026B000DC012C930480F581E02D0994089520918C
:1026C0000402309105022817390771F09093050232
:1026D00080930402E0910602F0910702309721F006
:1026E0000680F781E02D099408952091020230912F
:1026F00003022817390771F09093030280930202B6
:10270000E0910602F0910702309721F00084F185F4
:10271000E02D0994089585B7806885BF85B78068E6
:1027200085BF089508950C9492130C9493130C9400
:1027300092130C9492130E948B130E9497130C9483
:10274000951381E008950C94A1130E9496200E9495
:1027500064060E941A210E94DF0E0E943E0D0C9416
:1027600099137F928F929F92AF92BF92CF92DF92F6
:10277000EF92FF920F931F93CF93DF93CDB7DEB706
:102780002A970FB6F894DEBF0FBECDBF0E94B606E3
:102790000E94A313811111C08FEF89838A831B824A
:1027A0000E949F208160782F9D838C8349815A816C
:1027B0006B818D810E9465144FC049E0A42E42E0D8
:1027C000B42E00E010E0702E802F0E9451066C01A4
:1027D000F501819091905F018826992681149104DA
:1027E00031F40F5F1F4F0530110569F7D5CF809188
:1027F000930281FD0E945A0680E0EE24E394F12CBE
:1028000094012E213F21232B09F18E837F82CE203C
:10281000DF2081E0CD2809F480E088870E949F2096
:102820008160782F9A8789874E815F8168858A8544
:102830000E946514000F111FF801E75FFD4F8081B2
:102840009181E826F926F182E08206C08F5FEE0CC6
:10285000FF1C8031A9F6C5CF0E947C0D0E944A1052
:102860000E94AC220E943A13909108028917C9F085
:102870000E943A13809308022A960FB6F894DEBF9E
:102880000FBECDBFDF91CF911F910F91FF90EF90C1
:10289000DF90CF90BF90AF909F908F907F900C94DF
:1028A000DF032A960FB6F894DEBF0FBECDBFDF91CF
:1028B000CF911F910F91FF90EF90DF90CF90BF903D
:1028C000AF909F908F907F900895CF93DF93CDB777
:1028D000DEB72B970FB6F894DEBF0FBECDBF4F8388
:1028E000588769877A878B87DE01119686E0FD011C
:1028F00011928A95E9F785E0FE01379601900D92D5
:102900008A95E1F749815A816B817C818D819E8115
:102910000E942F1B2B960FB6F894DEBF0FBECDBFC3
:10292000DF91CF910895FC01808191810E94031E67
:102930000895CF93882309F4A4C0C82F8238C1F426
:102940000E943A1381FD9DC069E380911701909127
:1029500018010E94EB1F0E94901E2FEF81EE94E061
:10296000215080409040E1F700C0000069E319C0A9
:10297000833801F50E943A1380FD83C063E580919E
:102980001701909118010E94EB1F0E94901E2FEFDB
:1029900081EE94E0215080409040E1F700C00000BB
:1029A00063E580911701909118010E94ED1FCF916E
:1029B0000C94901E8438C1F40E943A1382FD61C0C9
:1029C00067E480911701909118010E94EB1F0E940B
:1029D000901E2FEF81EE94E0215080409040E1F76F
:1029E00000C0000067E4DDCF8CEF8C0F813AD0F49B
:1029F0006C2F80911701909118010E94B51F8823B8
:102A000049F06C2F80911701909118010E94ED1FE1
:102A10000E94901E6C2F80911701909118010E94C6
:102A2000EB1FC5CF80E28C0F883048F4C77081E07F
:102A300001C0880FCA95EAF70E94451EB8CFEBE5A2
:102A4000EC0FE33040F4F0E0E553FE4F808190E07E
:102A5000CF910C945F13E8E5EC0FE73150F4F0E010
:102A6000EE0FFF1FE356FE4F80819181CF910C94B2
:102A70007513C03F30F08C2F0E94B421CF910C947D
:102A8000A122CF910895882309F464C0823879F493
:102A90000E943A1381FF5EC069E380911701909113
:102AA00018010E94EB1F0E94901E69E310C083383A
:102AB000B1F40E943A1380FF4DC063E58091170185
:102AC000909118010E94EB1F0E94901E63E5809177
:102AD0001701909118010E94ED1F0C94901E8438EC
:102AE00079F40E943A1382FF35C067E480911701A0
:102AF000909118010E94EB1F0E94901E67E4E7CF9F
:102B00009CEF980F913A10F4682FE1CF90E2980F64
:102B1000983050F4877091E001C0990F8A95EAF7D8
:102B2000892F0E944B1ED9CF9BE5980F933020F43C
:102B300080E090E00C945F1398E5980F973120F4B3
:102B400080E090E00C947513803F20F00E941C22DE
:102B50000C94A1220895CF93C82F0E949914C933D1
:102B600049F42FEF87EE93E0215080409040E1F749
:102B700000C000008C2FCF910C944315882321F0C6
:102B80000E94451E0C94901E0895882321F00E94F7
:102B90004B1E0C94901E0895CF92DF92EF92FF92FD
:102BA0000F931F93CF93DF937C01062FC72FFC0158
:102BB000158112951F70D281D1110E94621E0E9450
:102BC0003B1E882379F0DD2369F080E2800F883096
:102BD00048F082E00E94DA1E0E943B1E91E0D82E4F
:102BE000D92601C0D12CCC2EC2948FE0C8228C2DC6
:102BF00090E0FC01EF58FF4F0C94342B8C2F807F1A
:102C0000CF70882311F0C295C07FDD2399F0CC23CB
:102C100009F4C4C180E2800F883010F0011104C0B3
:102C20008C2F0E94451E03C08C2F0E94551E0E94AF
:102C3000901EB4C1802F0E944315CC2309F4D3C148
:102C400080E2800F883010F0011104C08C2F0E94A8
:102C50004B1E03C08C2F0E945B1E0E94901EC3C19E
:102C60008C2F807FCF70803211F0C295C07F0023FF
:102C700019F00130C9F022C0DD2371F0112341F0B9
:102C8000113031F40E94751E8C2B0E947D1EABC149
:102C90000E94751E8C2B1DC0112319F0113009F4F0
:102CA000A2C10E94861E25C0DD2321F0163008F047
:102CB0009AC10EC0153008F096C11BC0DD2361F02B
:102CC000112331F0F701858180FF68C18F70858302
:102CD0008C2F0E94BE1587C1112359F0093309F0CA
:102CE0006EC1FFEF27EE83E0F15020408040E1F716
:102CF00064C18C2F0E94C51576C18C2F8695869550
:102D0000837019F0813061F06EC1DD2321F0802FD6
:102D10009C2F937002C080E090E00E945F136BC113
:102D2000DD2321F0802F9C2F937002C080E090E083
:102D30000E94751360C1DD23F9F0053F51F0063F95
:102D400071F0043FA9F48091DC029091DD02816072
:102D50000BC08091DC029091DD02826005C0809101
:102D6000DC029091DD0284609093DD028093DC02AE
:102D7000802F0E94B4211EC0053F51F0063F71F024
:102D8000043FA9F48091DC029091DD028E7F0BC09C
:102D90008091DC029091DD028D7F05C08091DC0284
:102DA0009091DD028B7F9093DD028093DC02802F77
:102DB0000E941C220E94A1221EC18C2F837009F048
:102DC00045C0D11114C1402F429546954770440F1C
:102DD000440F602F6F70862F90E0A0E0B0E0042ECB
:102DE00004C0880F991FAA1FBB1F0A94D2F704FFC3
:102DF00010C00FE010E020E030E004C0000F111F11
:102E0000221F331F4A95D2F70095109520953095D3
:102E100003C000E010E09801C695C695C370BC01E0
:102E2000CD01602B712B822B932BC23049F058F4CB
:102E3000C13019F00E94801CDAC00E946E1CD7C0FD
:102E40000E94921CD4C00E946C1CD1C0DD2319F0DA
:102E50008C2F817001C08695882309F4C8C0402F4B
:102E6000429546954770440F440F602F6F70862F30
:102E700090E0A0E0B0E0042E04C0880F991FAA1FC4
:102E8000BB1F0A94D2F704FF10C00FE010E020E04F
:102E900030E004C0000F111F221F331F4A95D2F7E4
:102EA000009510952095309503C000E010E0980142
:102EB000C695C695C370BC01CD01602B712B822BCA
:102EC000932BC23049F058F4C13019F00E94451DCF
:102ED0008EC00E94331D8BC00E94571D88C00E9467
:102EE000A61C85C0CF70DD2339F08C2F0E94CC1C2E
:102EF000802F0E94BE157BC0802F0E94C5158C2F8D
:102F00000E94ED1C74C0023F01F128F4003F41F023
:102F1000013FA1F03FC0033FF9F0043F39F13AC04F
:102F2000DD2341F0153008F05EC08C2F8F710E94B8
:102F3000121D59C0163008F056C0F7CFDD2339F006
:102F40008C2F8F710E94CC1C4EC0DD23C9F38C2FB7
:102F50008F710E94ED1C47C0DD2329F08C2F8F71EB
:102F60000E94B71C40C00E94B21C3DC0DD2349F046
:102F7000CF718C2F0E94CC1C63E08C2F0E94C51E49
:102F800032C081E00E94DA1E123068F182E00E94B5
:102F9000DA1E29C0DD2331F0112391F2802F0E9427
:102FA000991421C0112399F2093349F49FEFE7EEF8
:102FB000F3E09150E040F040E1F700C00000802FC6
:102FC0000E94431510C04C2F4F70602FC7010E9404
:102FD00041040E94DD1B0FC04C2F4F70602FC701B2
:102FE0000E94440408C088EF8C0D843020F40E94B5
:102FF0003A130E94DF03DD20C9F00E94371E80FDD6
:1030000015C0F70112820E94311E0E94CC1CC7011C
:103010000E9437180E94311EDF91CF911F910F91AE
:10302000FF90EF90DF90CF900C94ED1CDF91CF914B
:103030001F910F91FF90EF90DF90CF9008950F9325
:103040001F93CF93DF93EC01688179818A810E947D
:103050000E1E8C010E94691D0E945A1CB801CE01EF
:103060000E94CC15DF91CF911F910F910895CF93BE
:10307000DF93FC019081818123813481232B31F006
:103080008F3F31F481E09F3F19F403C081E001C01C
:1030900080E080FD0EC0EF01CF010E94F80388237D
:1030A00041F0CE010E941F18CE01DF91CF910C9408
:1030B000C103DF91CF9108950E94621E0E94721E8B
:1030C0000E94901E0E94CB230E94A12280E090E0EB
:1030D0000E945F1380E090E00C94751380911701BB
:1030E000909118010E94EF1F0C945C180E94521ED0
:1030F0000C946E18E92FE295EF704E2F50E0FA0114
:103100003297EE30F105B0F4EF57FF4F0C94342BAB
:10311000803F91F018F4883E68F40EC0843F51F46B
:103120000BC0883E48F0813F29F406C093FB8827F6
:1031300080F9089580E0089581E008950E94031EBB
:103140000E947A180895CF93DF9300D000D01F9289
:10315000CDB7DEB70F900F900F900F900F90DF91CB
:10316000CF910895CF93DF9300D000D000D0CDB79A
:10317000DEB726960FB6F894DEBF0FBECDBFDF9147
:10318000CF9108951F93CF93DF93C091140216E05F
:1031900080911502C81799F0D0E01C9FF0011D9F87
:1031A000F00D1124EA5EFD4F4081518162817381EF
:1031B000848195810E94B2182196C770E9CFDF9172
:1031C000CF911F910895409146025091470260911E
:1031D00048027091490280914A0290914B020C94EE
:1031E000B2180F931F93CF93DF9380914B02829578
:1031F0008F7009F05DC080914802882309F458C09F
:10320000809114021091150260914602709147025C
:10321000C0914902D0914A0291E06F3F09F090E0DD
:10322000292F06E0811709F443C0209721F07F3F42
:1032300021F030E003C031E001C0322F90E030FDDA
:1032400034C0089FF001099FF00D1124DF01AA5E30
:10325000BD4F11963C911197371327C03C913613FF
:1032600024C012963C91129731111FC013964D91B4
:103270005C9114974C1B5D0B483C5105B0F4809158
:103280004B028F70806180934B02E55EFD4F808121
:103290008F708061808386E492E00E943718DF910E
:1032A000CF911F910F910C94C21801968770BACFDD
:1032B000DF91CF911F910F9108959F92AF92BF928E
:1032C000CF92DF92EF92FF920F931F93CF93DF93F2
:1032D000CDB7DEB761970FB6F894DEBF0FBECDBF96
:1032E0008C0185E0F801DE011D9601900D928A9512
:1032F000E1F7F80140815181E280909146026091AE
:1033000047022091490230914A022115310531F0DE
:103310006F3F31F481E09F3F19F403C081E001C0A9
:1033200080E0F82FF1709F2E80FD46C1F801A38048
:10333000B48086E4C82E82E0D82EF0904802F501D1
:10334000E21BF30BFF2009F4DFC080914B02E83C45
:10335000F10508F09BC0282F207F09F052C05613BA
:1033600013C0491311C0FE2CE1100EC08F70806194
:1033700080934B020E94E318C6010E943718809187
:103380004B02F801858358C1AB2831F05F3F31F41F
:1033900081E04F3F19F403C081E001C080E080FD6F
:1033A00003C081E08E2502C080E090E0F82FF1702C
:1033B000FF2E80FF1CC0809114022091150236E080
:1033C000821709F417C190E0389FF001399FF00D82
:1033D0001124EA5EFD4F6181561306C060814613D9
:1033E00003C06281E61203C001968770E9CFFE2C0C
:1033F000EE2009F421C180914B02816080934B0241
:103400005AC0561306C0491304C0E11002C0F801A7
:103410009FC04D875E878D859E850E949E1888235C
:1034200079F1EE2069F120914B02822F82958F7005
:1034300090E0029774F0809146029091470298873D
:103440008F831986BB86AA862C87CE0107960E9499
:10345000371886E0F801A6E4B2E001900D928A9553
:10346000E1F70E94F1180E94E3180DC0561729F1E8
:103470004D875E878D859E850E949E1881112CC088
:10348000C8010E943718FF24F394D6C0282F207F4C
:1034900069F77A2DB98AA88A6E2D89890E94A318A6
:1034A00086E492E00E94371886E0F60111928A9530
:1034B000E9F70E94E318F12CBFC04913D9CFE110FE
:1034C000D7CFF8018583C8010E94371886E0F6013E
:1034D00011928A95E9F7B0C0EE2091F220914B024B
:1034E000822F82958F7090E002970CF4B2CF80917A
:1034F0004602909147029A8389831B82BD82AC82E7
:103500002E83CE010196A3CFE83CF10508F047C019
:10351000FE2CEE2009F4B4CF561330C049132EC050
:1035200020914B0220FD21C0822F82958F70482F61
:1035300050E041155105C9F0F80125834F30510580
:1035400041F08F5F982F9295907F822F8F70892BFB
:103550008583C8010E94371886E0F801A6E4B2E02E
:1035600001900D928A95E1F742C086E0F801A6E449
:10357000B2E001900D928A95E1F75EC04D875E87BB
:103580008D859E850E949E18811163CF80914B028C
:10359000816080934B02C8010E9437184DC07A2D7C
:1035A000B98AA88A6E2D89890E94A31886E0F6013F
:1035B00011928A95E9F71BC0EE2009F461CF4D877F
:1035C0005E878D859E850E949E18F82E882309F4BB
:1035D00057CF86E0F801A6E4B2E001900D928A95FB
:1035E000E1F786E492E00E9493140E94F1180E9491
:1035F000E31822C04D875E878D859E850E94031E3D
:10360000292F22952F70223028F49F7039F08111D4
:1036100005C00BC0243028F49F7049F4805E8830C8
:1036200020F0C8010E9437189F2CF92C05C0F80122
:103630009581907F99F7F9CF8F2D61960FB6F89409
:10364000DEBF0FBECDBFDF91CF911F910F91FF90D5
:10365000EF90DF90CF90BF90AF909F9008951F9311
:10366000CF93DF93CDB7DEB72C970FB6F894DEBFBC
:103670000FBECDBF4F83588769877A878B879C871A
:10368000CE0107960E945D198823D1F09F8188851D
:103690002A853B85232B31F08F3F31F481E09F3F1A
:1036A00019F403C081E001C080E080FD47C04F8174
:1036B000588569857A858B859C850E94B2183EC0A5
:1036C00086E0FE013796DE01119601900D928A95F3
:1036D000E1F7FF81E8856A857B856115710531F029
:1036E000EF3F31F481E0FF3F19F403C081E001C0F6
:1036F00080E080FD23C02091150230E0C9010196D1
:10370000877099274091140250E084179507F1F1D2
:10371000F983EA837D836C8396E0929FD001939F27
:10372000B00D1124AA5EBD4FFE01319601900D929D
:103730009A95E1F7809315020E94C21816E08091D5
:10374000140290911502891771F1189FC00111247C
:103750008A5E9D4F0E945D19882329F1E091140231
:103760001E9FF0011124EA5EFD4F4081518162816C
:103770007381848195810E94B2188091140290E037
:1037800001968770992780931402D9CF0E947618EA
:103790001092150210921402E6E4F2E086E0DF01D6
:1037A0001D928A95E9F72C960FB6F894DEBF0FBEEE
:1037B000CDBFDF91CF911F910895EF92FF920F93AC
:1037C0001F93CF93DF938C01892B09F46CC0F12CEC
:1037D000EE24E394E8012196F8018491843740F4C3
:1037E000843008F051C0813081F0823019F15BC023
:1037F000853709F444C0A8F19CE7980F903708F08A
:1038000052C08F770E94431541C00E5F1F4FFE01CB
:10381000849190E2980F983050F48770FE2D01C08B
:10382000FF0F8A95EAF78F2F0E94651E14C00E9431
:1038300099142DC00E5F1F4FFE01849190E2980FE6
:10384000983060F48770FE2D01C0FF0F8A95EAF76B
:103850008F2F0E946B1E0E94901E19C00E9443155C
:1038600016C00E5F1F4FFE01C491CC2381F08FE97B
:103870009FE00197F1F700C00000C150F6CF0E5F46
:103880001F4FFE01F49003C00E9499148E018F2DEA
:10389000882309F49FCFEFE9FFE03197F1F700C0EB
:1038A00000008150F5CFDF91CF911F910F91FF90D4
:1038B000EF900895089508950C945B1C0C945C1C83
:1038C0000E945E1C60938202709383028093840244
:1038D000909385020C945C180C94601C0F931F93BA
:1038E000009182021091830220918402309185021E
:1038F000602B712B822B932B1F910F910C94601CCA
:103900000F931F93009182021091830220918402F1
:103910003091850260237123822393231F910F919D
:103920000C94601C0F931F930091820210918302EC
:103930002091840230918502602771278227932786
:103940001F910F910C94601C0C945B1C0E94A41C92
:1039500060937E0270937F02809380029093810235
:103960000C945C1860E070E0CB010C94A61C0F93E3
:103970001F9341E050E060E070E08A019B0104C0C9
:10398000000F111F221F331F8A95D2F7C901B801FA
:103990001F910F910C94A61C0F931F9341E050E0D0
:1039A00060E070E004C0440F551F661F771F8A95C2
:1039B000D2F780917E0290917F02A0918002B09117
:1039C00081028A019B01082B192B2A2B3B2BC90151
:1039D000B8011F910F910C94A61C0F931F9341E007
:1039E00050E060E070E004C0440F551F661F771F71
:1039F0008A95D2F7409550956095709580917E029A
:103A000090917F02A0918002B09181028A019B0176
:103A1000082319232A233B23C901B8011F910F91C1
:103A20000C94A61C0F931F9341E050E060E070E0FF
:103A300004C0440F551F661F771F8A95D2F78091E7
:103A40007E0290917F02A0918002B09181028A0152
:103A50009B01082719272A273B27C901B8011F9175
:103A60000F910C94A61C0F931F9300917E0210914E
:103A70007F022091800230918102602B712B822B7A
:103A8000932B1F910F910C94A61C0F931F930091E1
:103A90007E0210917F02209180023091810260238A
:103AA0007123822393231F910F910C94A61C0F93D3
:103AB0001F9300917E0210917F022091800230912D
:103AC000810260277127822793271F910F910C9401
:103AD000A61C089520E1929F800D1124E82FE69501
:103AE000E695E695877051E001C0550F8A95EAF793
:103AF00085E0E89FF0011124E45BFD4F20E030E019
:103B000070E04081CB01022E02C0969587950A9401
:103B1000E2F78170819584278523842781932F5F25
:103B20003F4F2530310569F7089520E1929F800DC0
:103B30001124682F669566956695982F977085E095
:103B4000689FB001112440E050E080E0FB01E40FE9
:103B5000F51FE45BFD4F208130E0092E02C0369551
:103B600027950A94E2F721703327042E01C0220F13
:103B70000A94EAF7822B4F5F5F4F4530510531F7CA
:103B80000895BF92CF92DF92EF92FF920F931F930F
:103B9000CF93DF938C01C0907E02D0907F02E090A3
:103BA0008002F09081028091820290918302A09124
:103BB0008402B0918502C82AD92AEA2AFB2ACFE1D9
:103BC000D0E0D701C6010C2E04C0B695A7959795F5
:103BD00087950A94D2F780FD04C0219790F7B12C05
:103BE00007C0BC2EB8018C2F0E9462040197A9F374
:103BF0008B2DDF91CF911F910F91FF90EF90DF9070
:103C0000CF90BF900895CF93DF93EC010E94C11D28
:103C1000BE010E946204DF91CF9108951F93CF935C
:103C2000DF93EB0190911302992321F0CB010E94C5
:103C3000031E13C0882349F0CB010E94C11D182F19
:103C4000682FCE010E946A1D04C0CB010E94951D01
:103C5000182FBE01812F0E946204DF91CF911F9126
:103C60000895809186028595859585950895809122
:103C700086028770089590918602977081E009F41A
:103C800080E0089580919202089590919202892B8C
:103C90008093920208958095909192028923809357
:103CA0009202089510929202089590919102892BA8
:103CB0008093910208958095909191028923809339
:103CC0009102089510929102089590919002892B8B
:103CD000809390020895809590919002892380931B
:103CE000900208951092900208958091870208959D
:103CF00008950C94781E0C94791E90918702981761
:103D000021F0809387020C947B1E08958091870296
:103D1000882329F01092870280E00C947B1E08957E
:103D2000E0911701F0911801809192028083E09157
:103D30001701F0911801908180919102892B808365
:103D4000E0911701F0911801908180919002892BE8
:103D5000808380918702882381F0E0911701F091A0
:103D600018019081892B808380911701909118010F
:103D70000E94A91F81110E94861E809117019091B7
:103D800018010C9446130C94781E98E0899F9001BA
:103D90001124262B209386020E94CC1C809186023F
:103DA0008595859585950C94C31E1092860280E0BA
:103DB0000C94C31E209186028095822380938602F4
:103DC000982F977079F430E0482F082E000C550B8F
:103DD0002417350739F08595859585950E94ED1C4A
:103DE0000C94D51E08956FEF7FEF80E090E00C9467
:103DF000EF2B80E090E00E94CB2B21E08C3E9E4F89
:103E000009F020E0822F089582E090E00C94BD2B11
:103E100083E090E00C94BD2BCF9384E090E00E946F
:103E2000BD2BC82F81E290E00E94BD2B2C2F30E0EB
:103E3000A901582BCA01CF910895CF93C92F682F9C
:103E400084E090E00E94D12B6C2F81E290E0CF9132
:103E50000C94D12B86E090E00C94BD2B682F86E06B
:103E600090E00C94D12BAB01BC018FE090E00C945E
:103E7000E32BAB01BC0183E190E00C94E32B60E009
:103E800070E0CB010C94391F60E070E0CB010E9420
:103E9000331F0C943F1F6CEE7EEF80E090E00E9499
:103EA000EF2B60E082E090E00E94D12B60E083E0A5
:103EB00090E00E94D12B1092820210928302109205
:103EC00084021092850260E084E090E00E94D12B91
:103ED00060E081E290E00E94D12B60E085E090E01C
:103EE0000E94D12B60E086E090E00E94D12B6FEF22
:103EF00087E090E00E94D12B40E050E0BA0188E0DA
:103F000090E00E94E32B60E08DE090E00E94D12BD6
:103F100040E050E0BA0188E190E00E94E32B60E0CD
:103F200087E190E00E94D12B40E050E0BA018CE1A3
:103F300090E00E94E32B60E080E290E00E94D12BB1
:103F40000C94441F0C944B1F682F8EE090E00C944F
:103F5000D12BFC01329697E080E0915029F021911D
:103F60002223D9F38F5FF9CF0895662349F0FC012E
:103F7000329608962191621729F0E817F907D1F7D0
:103F800080E0089581E008959C01FC0132969FEF46
:103F900080E04191461789F09F3F19F4411101C01B
:103FA000982F8F5F8630A9F79F3F39F0F901E90F0D
:103FB000F11D97FDFA956283089508959C012A5F8B
:103FC0003F4FFC014281461301C0128201968217C5
:103FD0009307B9F708950C94C41F0C94DE1F029642
:103FE00026E0FC0111922A95E9F7089508950C94B2
:103FF000F61F0C94F61FCF930E94F91F0E94B6067D
:104000000E94F71FC0E08C2F0E945106892B29F4D3
:10401000CF5FC530C1F780E001C081E0CF91089546
:104020000C94F61F0C9410200E9412208091E8023C
:10403000843009F43CC01092940220E488E190E0BE
:104040000FB6F894A895809360000FBE209360008F
:1040500080E00E94211080E00E94DF030E94790D21
:104060008091950281110AC081E080939502809130
:10407000C4028170809396020E94AC0C0E941220B0
:1040800083B7817F846083BF83B7816083BF789467
:10409000889583B78E7F83BF0FB6F894A8958091DB
:1040A0006000886180936000109260000FBE0895E8
:1040B0000C94F61F0E9476180E94DF0E0E943A139D
:1040C0000E94DF03109295028091960281110E9456
:1040D000710D0E94BE0C0C9458201F920F920FB6C7
:1040E0000F9211248F939F93AF93BF93809194026B
:1040F000811113C08091DE029091DF02A091E00255
:10410000B091E1024196A11DB11D8093DE02909312
:10411000DF02A093E002B093E102BF91AF919F91C3
:104120008F910F900FBE0F901F90189582E084BD65
:1041300093E095BD9AEF97BD80936E0008952FB7D9
:10414000F8948091DE029091DF02A091E002B0919C
:10415000E1022FBF08959C014FB7F8948091DE02D1
:104160009091DF02A091E002B091E1024FBF821B6B
:10417000930B089578941F920F920FB60F9211240B
:104180008F939F93AF93BF938091DE029091DF0254
:10419000A091E002B091E1020196A11DB11D8093B2
:1041A000DE029093DF02A093E002B093E102BF91A0
:1041B000AF919F918F910F900FBE0F901F90189508
:1041C00081E08093E00080E28093D8001092C900E3
:1041D0008FE19EE40197F1F700C0000087E090EBCB
:1041E000DC018093F1029093F202A093F302B0936A
:1041F000F4029CE088E10FB6F894A89580936000E3
:104200000FBE90936000FFCF0C94F31E0E94B60681
:104210008FE39CE90197F1F700C000000E94B60609
:1042200080E00E94510680FF04C00E9404210C948B
:10423000E02008950E94F91E811102C00E94A21F71
:104240000E94041F809393020E940C1F9093E3022C
:104250008093E2020E94081F682F70E080E090E0E7
:104260000C946C1C80919E0280FF0BC060911E011B
:1042700085E0689FB00111247595679575956795E0
:104280002BC081FF09C060911E0185E0689FB001CD
:1042900011247595679520C082FF07C060911E01AB
:1042A00085E0689FB001112417C090919D02992369
:1042B000D1F060911D01961788F720911E0185E0CD
:1042C000289F90011124929FA001939F500D1124CB
:1042D00070E0CA010E94FE2A6038710540F4611541
:1042E000710519F406C065E070E0862F08958FE728
:1042F000089581E0089580919E0280FF08C060913A
:104300001A0170E0759567957595679521C081FFD5
:1043100006C060911A0170E07595679519C082FF1B
:1043200004C060911A0170E010C090919D02992321
:1043300099F0609119019617A0F780911A01899F51
:10434000C001112470E00E94FE2A6038710540F41B
:104350006115710519F406C061E070E0862F0895BB
:104360008FE7089581E00895803F21F40E94322173
:10437000819504C0813F29F40E9432218093A202DA
:104380000895823F21F40E943221819504C0833F29
:1043900029F40E9432218093A1020895893F19F4E3
:1043A0000E947B2105C08A3F31F40E947B218195C8
:1043B0008093A30208958B3F21F40E947B21819575
:1043C00004C08C3F29F40E947B218093A4020895AD
:1043D000843F21F48091A002816017C0853F21F4C1
:1043E0008091A002826011C0863F21F48091A002DA
:1043F00084600BC0873F21F48091A002886005C0D3
:10440000883F31F48091A00280618093A0020895DA
:104410008D3F21F480919E0281600BC08E3F21F47C
:1044200080919E02826005C08F3F29F480919E0298
:10443000846080939E020895803F39F48091A202A7
:1044400087FF6CC01092A20269C0813F29F480915D
:10445000A2021816BCF362C09091A102823F29F417
:1044600097FF5CC01092A10259C0833F19F419163E
:10447000CCF354C0893F41F48091A30218160CF08C
:104480004DC01092A3024AC08A3F29F48091A30232
:1044900087FF44C0F6CF8B3F39F48091A40287FF99
:1044A0003DC01092A4023AC08C3F29F48091A4022E
:1044B0001816BCF333C0843F21F48091A0028E7F94
:1044C00017C0853F21F48091A0028D7F11C0863FE7
:1044D00021F48091A0028B7F0BC0873F21F4809153
:1044E000A002877F05C0883F31F48091A0028F7EB3
:1044F0008093A00213C08D3F21F480919E028E7F95
:104500000BC08E3F21F480919E028D7F05C08F3FAE
:1045100029F480919E028B7F80939E028091A1025C
:1045200081110EC08091A20281110AC08091A30264
:10453000811106C08091A402811102C010929D02D7
:1045400008958FE992E00E9451130E949F2090935A
:104550009C0280939B020895CF93DF9300D000D0FC
:1045600000D0CDB7DEB786E0EFE9F2E0DE011196CC
:1045700001900D928A95E1F78091A102811105C009
:104580008091A202882309F47AC0809199029091C7
:104590009A020E94AB20AC0190919D02992339F0C0
:1045A00020911F0130E02417350758F068C0209192
:1045B00020018AE0289F900111242417350718F064
:1045C0005EC09F3F19F09F5F90939D021092A302DF
:1045D0001092A4028091A102181624F40E943221A4
:1045E0008093A1028091A10287FF05C00E94322121
:1045F00081958093A1028091A202181624F40E9452
:1046000032218093A2028091A20287FF05C00E94FE
:10461000322181958093A2023091A1023323E1F0EF
:104620002091A2022223C1F045EB3403C0011124E2
:10463000992319F09093A10203C081E08093A10215
:1046400035EB2303C0011124992319F09093A202A2
:1046500003C081E08093A2020E94A12280919B026C
:1046600090919C0290939A028093990286E0FE01B9
:104670003196AFE9B2E001900D928A95E1F7809111
:10468000A302811105C08091A402882309F47AC095
:1046900080919702909198020E94AB20AC0190917A
:1046A0009D02992339F020911B0130E02417350732
:1046B00058F068C020911C018AE0289F90011124C5
:1046C0002417350718F05EC09F3F19F09F5F909345
:1046D0009D021092A1021092A2028091A3021816CC
:1046E00024F40E947B218093A3028091A30287FF80
:1046F00005C00E947B2181958093A3028091A40232
:10470000181624F40E947B218093A4028091A402B5
:1047100087FF05C00E947B2181958093A402309180
:10472000A3023323E1F02091A4022223C1F045EB40
:104730003403C0011124992319F09093A30203C0FC
:1047400081E08093A30235EB2303C0011124992358
:1047500019F09093A40203C081E08093A4020E9408
:10476000A12280919B0290919C0290939802809349
:10477000970286E0FE013196AFE9B2E001900D921A
:104780008A95E1F726960FB6F894DEBF0FBECDBF2F
:10479000DF91CF910895EFE9F2E086E0DF011D920D
:1047A0008A95E9F710929D0210929E0208958091D9
:1047B000AD020895CF93DF9300D01F92CDB7DEB73F
:1047C0009091E802943019F589837B836A8382E0B3
:1047D0008093E9008FEF9091E800815095FD06C02D
:1047E00095ED9A95F1F700008111F5CF8091E800E1
:1047F00085FF0DC040E050E063E070E0CE0101961F
:104800000E9422268091E8008E778093E8000F9026
:104810000F900F90DF91CF910895CF93DF93EC012C
:104820000E940526823011F0843031F4BE0184E00C
:10483000DF91CF910C94DA23DF91CF910895BC01E1
:1048400083E00C94DA23CF93DF93EC010E940526DA
:10485000823011F08430F9F482E08093E9008FEF28
:104860009091E800815095FD06C095ED9A95F1F77D
:1048700000008111F5CF8091E80085FF0CC040E079
:1048800050E066E070E0CE010E9422268091E800B0
:104890008E778093E800DF91CF910895CF93DF93D7
:1048A000EC010E940526823011F0843039F581E058
:1048B0008093E9008FEF9091E800815095FD06C04C
:1048C00095ED9A95F1F700008111F5CF8091E80000
:1048D00085FF14C040E050E068E070E0CE010E9427
:1048E00022268091E8008E778093E80088E0FE0120
:1048F000A5EAB2E001900D928A95E1F7DF91CF91A0
:1049000008958091E702811109C00E94B3270E9497
:1049100010288091E20084608093E2000895109254
:10492000E7020895089508950C945A2042E061EC3E
:1049300081E00E942C2742E261EC82E00C942C275B
:104940008091EA02833009F460C030F4813071F064
:10495000823009F499C008958A3009F485C08B30FB
:1049600009F46BC0893009F0A7C020C08091E9022A
:10497000813A09F0A1C08091E800877F8093E80028
:104980008091ED029091EE02892B21F468E085EA96
:1049900092E003C060E080E090E070E00E946D264D
:1049A0008091E8008B778093E80008958091E90278
:1049B000813209F081C08091ED029091EE02029760
:1049C00008F07AC08091E800877F8093E8008091AA
:1049D000E80082FD05C08091E8028111F8CF6CC02B
:1049E0002091F3008091F20090E0922B029729F43D
:1049F0008091F1008B7F813021F48091F1008093D0
:104A0000AD028091E8008B7753C08091E902813A32
:104A100009F052C08091ED029091EE02892B09F0CD
:104A20004BC08091E800877F8093E8008091E80088
:104A300080FFFCCF80912B0136C08091E90281324A
:104A4000D9F58091ED029091EE02892BA9F5809124
:104A5000E800877F8093E8000E9461278091EB0245
:104A600080932B010C9476188091E902813221F514
:104A70008091E800877F8093E8000E946127809101
:104A8000EC028093AE0208958091E902813AA1F48C
:104A90008091E800877F8093E8008091E80080FFA4
:104AA000FCCF8091AE028093F1008091E8008E7778
:104AB0008093E8000C946127089584B7877F84BFB2
:104AC0000FB6F894A895809160008861809360008B
:104AD000109260000FBE90E080E80FB6F8948093CB
:104AE0006100909361000FBE0E949B130E94B32748
:104AF0000E9410288091E20084608093E200789404
:104B00000E94A52A0E94A51381E291E00E9435131C
:104B10008091E802853069F40E9414208091E602B9
:104B20008823B1F30E94FB1F882391F30E940C2677
:104B3000EFCF0E94B113ECCF0C949E25292F332781
:104B400023303105C9F060F42130310581F0223085
:104B5000310509F04AC08BE390E020E435E049C01C
:104B60002132310511F12232310579F13EC082E165
:104B700090E02BE735E03DC099278130910561F049
:104B800040F08230910559F0039779F5ECE0F5E0BB
:104B900008C0ECE3F5E005C0E4E2F5E002C0E2E1C4
:104BA000F5E0849190E09F0124C06115710541F00A
:104BB00061307105D1F489E090E02BE635E019C051
:104BC00089E090E022E535E014C06115710541F0FF
:104BD0006130710551F481E890E02DE835E009C0BD
:104BE00080E490E02EE036E004C080E090E020E039
:104BF00030E0FA013183208308958091E802843007
:104C000011F081E0089582E008958091AF02811152
:104C100002C00C94FD25089580E189BD82E189BD23
:104C200009B400FEFDCF8091D8008F7D8093D8001D
:104C30008091E00082608093E0008091E00081FD3F
:104C4000FCCF0895CF92DF92EF92FF920F931F93C4
:104C5000CF93DF93EC018B017A010E9480278111B1
:104C600033C0E114F10439F0F70180819181081B10
:104C7000190BC80FD91FC12CD12C0115110519F121
:104C80008091E80085FD16C08091E8008E778093C2
:104C9000E800E114F10449F0F70180819181C80E28
:104CA000D91ED182C08285E00FC00E948027882350
:104CB00021F30AC089918093F10001501109FFEF9F
:104CC000CF1ADF0ADACF80E0DF91CF911F910F91E9
:104CD000FF90EF90DF90CF9008952091EF023091F8
:104CE000F0022617370748F06115710539F4209155
:104CF000E8002E772093E80001C0B901FC0120E014
:104D00006115710579F18091E8028823F1F1853010
:104D1000F1F18091E80083FD3CC08091E80082FDC4
:104D20002EC08091E80080FFEBCF2091F3008091AE
:104D3000F20090E0922B6115710551F088309105D9
:104D400038F421912093F100615071090196F3CF5D
:104D500021E0089709F020E08091E8008E778093A9
:104D6000E800CECF2111CFCF0AC08091E80288237E
:104D700061F0853061F08091E80083FD0AC0809188
:104D8000E80082FFF2CF80E0089582E0089583E09A
:104D9000089581E008952091EF023091F0022617E6
:104DA000370748F06115710539F42091E8002E7736
:104DB0002093E80001C0B901FC0120E061157105F4
:104DC00091F18091E802882309F440C0853009F40C
:104DD0003FC08091E80083FD3DC08091E80082FDE6
:104DE0002FC08091E80080FFE9CF2091F3008091EF
:104DF000F20090E0922B6115710559F08830910511
:104E000040F424912093F10031966150710901968C
:104E1000F2CF21E0089709F020E08091E8008E773A
:104E20008093E800CBCF2111CCCF0AC08091E8025B
:104E3000882361F0853061F08091E80083FD0AC02D
:104E40008091E80082FFF2CF80E0089582E008952B
:104E500083E0089581E00895982F973068F5909346
:104E6000E900981739F07091EC002091ED00509115
:104E7000F00003C0242F762F50E021FD02C09F5F79
:104E8000ECCF3091EB003E7F3093EB003091ED00A2
:104E90003D7F3093ED003091EB0031603093EB00BB
:104EA0007093EC002093ED005093F0002091EE0001
:104EB00027FDE5CF80E008958F708093E90081E0C1
:104EC00008958091E90287FF11C08091E80082FD7A
:104ED00005C08091E8028111F8CF11C08091E800EF
:104EE0008B770BC08091E802882349F08091E8001D
:104EF00080FFF8CF8091E8008E778093E8000895D6
:104F00002091E4003091E50095E64091EC00842F7B
:104F1000817040FF23C08091E80080FD1DC080911A
:104F2000E802882399F0853099F08091EB0085FDA7
:104F300011C04091E4005091E5002417350729F392
:104F4000915011F09A01E1CF84E0089582E0089534
:104F500083E0089581E0089580E008954091E8009D
:104F600042FFDDCF08950E9421280E942928E0EE0B
:104F7000F0E0808181608083E8EDF0E080818F77D0
:104F8000808319BCA7EDB0E08C918E7F8C938081DB
:104F90008F7E80831092E70208950F931F93CF9323
:104FA000DF930E9421280E942928C8EDD0E0888143
:104FB0008F77888388818068888388818F7D8883C4
:104FC00019BC1092E8021092E4021092E6021092CC
:104FD000E50200EE10E0F80180818B7F80838881FC
:104FE0008160888342E060E080E00E942C27E1EE4F
:104FF000F0E080818E7F8083E2EEF0E0808181604E
:105000008083808188608083F80180818E7F8083A7
:10501000888180618883DF91CF911F910F910895DE
:10502000E8EDF0E080818F7E8083E7EDF0E0808125
:105030008160808384E082BF81E08093E7020C94EA
:10504000CD27E8EDF0E080818E7F80831092E20032
:1050500008951092DA001092E10008951F920F92C5
:105060000FB60F9211242F933F934F935F936F933B
:105070007F938F939F93AF93BF93EF93FF93809111
:10508000E10082FF0BC08091E20082FF07C08091A7
:10509000E1008B7F8093E1000E94A42A8091DA00D6
:1050A00080FF1FC08091D80080FF1BC08091DA0074
:1050B0008E7F8093DA008091D90080FF0DC080E15F
:1050C00089BD82E189BD09B400FEFDCF81E08093F6
:1050D000E8020E94812405C019BC1092E8020E94D7
:1050E0008F248091E10080FF19C08091E20080FF51
:1050F00015C08091E2008E7F8093E2008091E200F3
:1051000080618093E2008091D80080628093D80013
:1051100019BC85E08093E8020E9493248091E1000D
:1051200084FF30C08091E20084FF2CC080E189BD03
:1051300082E189BD09B400FEFDCF8091D8008F7D4A
:105140008093D8008091E1008F7E8093E100809170
:10515000E2008F7E8093E2008091E2008160809384
:10516000E2008091E402882311F084E007C080917E
:10517000E30087FD02C081E001C083E08093E80284
:105180000E9494248091E10083FF29C08091E20075
:1051900083FF25C08091E100877F8093E10082E05A
:1051A0008093E8021092E4028091E1008E7F809368
:1051B000E1008091E2008E7F8093E2008091E20026
:1051C00080618093E20042E060E080E00E942C2752
:1051D0008091F00088608093F0000E949224FF91FB
:1051E000EF91BF91AF919F918F917F916F915F915F
:1051F0004F913F912F910F900FBE0F901F901895D8
:105200001F920F920FB60F9211242F933F934F933B
:105210005F936F937F938F939F93AF93BF93CF933E
:10522000DF93EF93FF93C091E900CF708091EC0082
:10523000D82FD17080FDD0E81092E9008091F00065
:10524000877F8093F00078940E9444291092E900AF
:105250008091F00088608093F000CD2BCF70C093D8
:10526000E900FF91EF91DF91CF91BF91AF919F91B5
:105270008F917F916F915F914F913F912F910F90FF
:105280000FBE0F901F9018951F93CF93DF93CDB74C
:10529000DEB7AA970FB6F894DEBF0FBECDBFE9EE1A
:1052A000F2E08091F100819322E0E13FF207C9F73B
:1052B0000E94A0248091E80083FF2EC18091E90222
:1052C0009091EA02492F50E04A30510508F024C17C
:1052D000FA01E157FF4F0C94342B803821F08238CB
:1052E00009F01AC108C08091E5029091E602992365
:1052F00089F082600FC08091ED028F70873008F0D6
:105300000BC18093E9008091EB0085FB882780F931
:105310001092E9009091E800977F9093E8008093C5
:10532000F1001092F100D1C0282F2D7F09F0F4C0B8
:10533000882319F0823061F0EFC08091EB02813058
:1053400009F0EAC0933009F080E08093E6022EC0B5
:105350008091EB0281112AC08091ED028F702FEFB6
:10536000280F263008F0D8C08093E9002091EB0088
:1053700020FF1CC0933021F48091EB00806214C0A8
:105380009091EB0090619093EB0021E030E0A90157
:1053900002C0440F551F8A95E2F74093EA0010922D
:1053A000EA008091EB0088608093EB001092E900A6
:1053B0008091E800877F8093E8000E946127ACC05D
:1053C0008111AAC01091EB021F778091E3008078D1
:1053D000812B8093E3008091E800877F8093E80031
:1053E0000E9461278091E80080FFFCCF8091E3005C
:1053F00080688093E300111102C082E001C083E065
:105400008093E80289C08058823008F085C080917E
:10541000EB029091EC028C3D53E0950779F583E027
:105420008A838AE289834FB7F894DE01139620E0DD
:105430003EE051E2E32FF0E050935700E49120FF6B
:1054400003C0E295EF703F5FEF708E2F90E0EA307F
:1054500010F0C79601C0C0968D939D932F5F2431A5
:1054600049F74FBF8091E800877F8093E8006AE2A8
:1054700070E0CE0101960E946D2616C06091ED028B
:105480007091EE02AE014F5F5F4F0E949C25BC0100
:10549000892B09F441C09091E800977F9093E80030
:1054A00089819A810E94CB268091E8008B77809336
:1054B000E80032C0803881F58091E800877F8093D2
:1054C000E8008091E4028093F1008091E8008E77FB
:1054D00072CF811121C08091EB029091EC0299274B
:1054E0000297D4F48091E800877F8093E800809150
:1054F000EB028093E4020E9461278091E402811113
:1055000006C08091E30087FD02C081E001C084E015
:105510008093E8020E9496248091E80083FF0AC0ED
:105520008091E800877F8093E8008091EB008062A3
:105530008093EB00AA960FB6F894DEBF0FBECDBFE6
:10554000DF91CF911F9108950895CF938091E80244
:105550008823A1F0C091E900CF709091EC00892FD1
:10556000817090FD80E8C82B1092E9008091E800DE
:1055700083FD0E944429CF70C093E900CF91089524
:10558000DB018F939F930E94492BBF91AF91A29F04
:10559000800D911DA39F900DB29F900D1124089531
:1055A000991B79E004C0991F961708F0961B881F75
:1055B0007A95C9F78095089587FB082E062687FD02
:1055C000819567FD61950E94D02A0EF4919507FCA4
:1055D00081950895AA1BBB1B51E107C0AA1FBB1FE1
:1055E000A617B70710F0A61BB70B881F991F5A956F
:1055F000A9F780959095BC01CD01089597FB072EE2
:1056000016F4009407D077FD09D00E94EA2A07FC1F
:1056100005D03EF4909581959F4F089570956195C2
:105620007F4F0895A1E21A2EAA1BBB1BFD010DC0DE
:10563000AA1FBB1FEE1FFF1FA217B307E407F50742
:1056400020F0A21BB30BE40BF50B661F771F881F1E
:10565000991F1A9469F760957095809590959B01B4
:10566000AC01BD01CF010895EE0FFF1F0590F4912D
:10567000E02D0994A29FB001B39FC001A39F700DBC
:10568000811D1124911DB29F700D811D1124911D4A
:1056900008950E943A2BA59F900DB49F900DA49F52
:1056A000800D911D112408958F929F92AF92BF9209
:1056B000CF92DF92EF92FF92CF93DF93EC0168815C
:1056C00079818A819B81611571058105910521F49C
:1056D00064E279ED8BE597E02DE133EF41E050E0B6
:1056E0000E94052C49015A019B01AC01A7EAB1E4D3
:1056F0000E94492B6B017C01ACEEB4EFA501940133
:105700000E94272CDC01CB018C0D9D1DAE1DBF1D01
:10571000B7FF03C00197A109B04888839983AA8382
:10572000BB839F77DF91CF91FF90EF90DF90CF9079
:10573000BF90AF909F908F9008950E94542B089532
:1057400080E091E00E94542B0895A0E0B0E08093A7
:10575000000190930101A0930201B0930301089509
:10576000FC014150504030F001900616D1F73197BE
:10577000CF010895882799270895F999FECF92BD02
:1057800081BDF89A992780B50895A6E1B0E044E07C
:1057900050E00C94F72BA8E1B0E042E050E00C940C
:1057A000F72B262FF999FECF92BD81BDF89A01976C
:1057B00000B4021639F01FBA20BD0FB6F894FA9A59
:1057C000F99A0FBE08950396272F0E94D22B0E94AC
:1057D000D12B252F0E94D22B242F0C94D22B019653
:1057E000272F0E94D22B0C94D12BDC01CB01FC0182
:1057F000F999FECF06C0F2BDE1BDF89A319600B42A
:105800000D9241505040B8F70895052E97FB1EF4B5
:1058100000940E941C2C57FD07D00E94122B07FCFD
:1058200003D04EF40C941C2C509540953095219546
:105830003F4F4F4F5F4F08959095809570956195BC
:105840007F4F8F4F9F4F0895B7FF0C94492B0E94B5
:0C585000492B821B930B0895F894FFCFA6
:10585C00010000000102000600060601191A1B1CBB
:10586C001D1E1F2021220688022808641E140A32DD
:10587C001ED7234E2423241F240D2401E200E9000B
:10588C00EA00B500B600B700CD008301CC008A0158
:10589C0092019401210223022402250226022702EE
:1058AC002A02B300B4006F0070008182833033F59C
:1058BC00F6F767663635349796949593929091F0F7
:1058CC00F4F100010202020206060609090909099F
:1058DC00090F0F0F0F0F0F15151518191919191985
:1058EC0019191919192324252525252525E200E93F
:1058FC0000EA00B500B600B700CD008301CC008AE9
:10590C00019201940121022302240225022602277E
:0E591C00022A02B300B4006F00700081828383
:00000001FF
