:100000000C949A050C94E1050C94E1050C94E1051F
:100010000C94E1050C94E1050C94E1050C94E105C8
:100020000C94E1050C94E1050C94842F0C9456304B
:100030000C9469260C94E1050C94E1050C94E105FF
:100040000C94E1050C94E1050C94E1050C94E10598
:100050000C94E1050C94B6260C94E1050C94E10592
:100060000C94E1050C94E1050C94E1050C94E10578
:100070000C94E1050C94E1050C94E1050C94E10568
:100080000C94E1050C94E1050C94E1050C94E10558
:100090000C94E1050C94E1050C94E1050C94E10548
:1000A0000C94E1050C94E1050C94E1056B136E13BF
:1000B00076137B13801385138A138F13941399136C
:1000C0009E13A313A513A813AB13AE13B113B4134C
:1000D000B613BB133D1B3D1B6F1B6F1BBC1BDA1BF9
:1000E000321D321D1C1CB11CC21CC21C221D321D23
:1000F000321D2B1DC71DC71DD91DD91DD01DD91DD2
:10010000D91DD91DC71DC71DD51DD91DD91DD51D6B
:10011000C330EA30E231EA30E23136315931E2318E
:10012000B031BF3129001E001F0020002100220035
:10013000230024002500260027002D002E0031007A
:1001400035004C002B00000014001A0008001500B8
:1001500017001C0018000C00120013002F003000C4
:100160002A004B00390000000400160007000900B7
:100170000A000B000D000E000F00330034002800B1
:1001800000004E00E100E1001D001B000600190008
:100190000500110010003600370038000000E500AF
:1001A00052004D00E000E3000000E2002C000000DF
:1001B0002C0000002C000000E6000151E40050007B
:1001C00051004F000000000000000000000000008F
:1001D000000000000000000000000000000000001F
:1001E0000000000000000000C25C000000000000F1
:1001F00000000000000000000000000000000000FF
:1002000000000000000000000000000000000000EE
:1002100000000000000000000000000000000000DE
:1002200000000000000000000000000000000000CE
:1002300000000000000000000000000000000000BE
:1002400000000000000000000000000000000000AE
:10025000000000000000000000000100000000009D
:100260000000000044454255473A206469736162CA
:100270006C65642E0A0044454255473A20656E611C
:10028000626C65642E0A000A002530313662003A3D
:10029000200025303258000A722F6320303132336B
:1002A0003435363738394142434445460A0072678F
:1002B000626C696768742074696D65722064697323
:1002C00061626C652E0A007267626C6967687420EF
:1002D00074696D657220656E61626C65642E0A00DA
:1002E0007267626C696768742073657420687376DE
:1002F000205B4E4F454550524F4D5D3A2025752CA1
:1003000025752C25750A007267626C696768742010
:1003100073657420687376205B454550524F4D5D80
:100320003A2025752C25752C25750A007267626C9C
:1003300069676874207261696E626F772073657493
:10034000206873763A2025642C25642C25642C259E
:10035000750A007267626C6967687420646973610A
:10036000626C65205B4E4F454550524F4D5D3A20C3
:100370007267626C696768745F636F6E6669672E27
:10038000656E61626C65203D2025750A00726762AA
:100390006C696768742064697361626C65205B4591
:1003A0004550524F4D5D3A207267626C69676874C0
:1003B0005F636F6E6669672E656E61626C65203D76
:1003C0002025750A007267626C6967687420656E23
:1003D00061626C65205B4E4F454550524F4D5D3A12
:1003E000207267626C696768745F636F6E666967C5
:1003F0002E656E61626C65203D2025750A0072676E
:10040000626C6967687420656E61626C65205B452B
:100410004550524F4D5D3A207267626C696768744F
:100420005F636F6E6669672E656E61626C65203D05
:100430002025750A007267626C6967687420746FA2
:1004400067676C65205B454550524F4D5D3A2072A1
:1004500067626C696768745F636F6E6669672E6553
:100460006E61626C65203D2025750A007267626CC2
:1004700069676874206D6F6465205B4E4F45455019
:10048000524F4D5D3A2025750A007267626C6967AC
:100490006874206D6F6465205B454550524F4D5D1B
:1004A0003A2025750A007267626C696768745F6933
:1004B0006E6974207267626C696768745F636F6EDF
:1004C0006669672E6D6F6465203D20302E2057725F
:1004D0006974652064656661756C742076616C75FD
:1004E000657320746F20454550524F4D2E0A00729F
:1004F00067626C696768745F696E697420656563BB
:100500006F6E666967206973206E6F7420656E6117
:10051000626C65642E0A007267626C696768745F5A
:10052000696E6974207374617274210A0072676263
:100530006C696768745F696E69742063616C6C656F
:10054000642E0A007267626C696768745F636F6E1D
:100550006669672E7370656564203D2025640A0016
:100560007267626C696768745F636F6E6669672E35
:1005700076616C203D2025640A007267626C6967B1
:1005800068745F636F6E6669672E736174203D20C7
:1005900025640A007267626C696768745F636F6ED6
:1005A0006669672E687565203D2025640A007267BC
:1005B000686C696768745F636F6E6669672E6D6FDC
:1005C0006465203D2025640A007267626C69676873
:1005D000745F636F6E6669672E656E61626C65201D
:1005E0003D2025640A007267626C696768745F6306
:1005F0006F6E66696720454550524F4D3A0A00328A
:10060000190A00047F3F1F643214643214783C1EC0
:100610001E140A052223252628292A2C2D2F3032A4
:10062000333536383A3B3D3E4042434547494A4CD4
:100630004E5051535557595A5C5E60626466686902
:100640006B6D6F71737577797B7D7F81838587890A
:100650008A8C8E90929496989A9C9E9FA1A3A5A70F
:10066000A8AAACAEAFB1B3B4B6B8B9BBBCBEBFC13B
:10067000C2C3C5C6C7C9CACBCCCDCED0D1D2D2D3C6
:10068000D4D5D6D7D7D8D9D9DADADBDBDBDCDCDCDA
:10069000DCDCDDDDDDDDDCDCDCDCDCDBDBDBDADA9D
:1006A000D9D9D8D7D7D6D5D4D3D2D2D1D0CECDCC14
:1006B000CBCAC9C7C6C5C3C2C1BFBEBCBBB9B8B629
:1006C000B4B3B1AFAEACAAA8A7A5A3A19F9E9C9AB4
:1006D00098969492908E8C8A89878583817F7D7B82
:1006E00079777573716F6D6B6968666462605E5C63
:1006F0005A5957555351504E4C4A49474543424029
:100700003E3D3B3A3836353332302F2D2C2A2928BE
:1007100026252322FFAA7F55406261636B6C6967BF
:10072000687420737465703A2025750A00626163ED
:100730006B6C696768742064697361626C650A0038
:100740006261636B6C6967687420656E61626C6579
:100750000A006261636B6C6967687420746F676715
:100760006C653A2025750A006261636B6C69676885
:10077000742064656372656173653A2025750A00AB
:100780006261636B6C6967687420696E637265612E
:1007900073653A2025750A0000010101010101017C
:1007A0000101020202020202020202030303030326
:1007B00003030304040404040404050505050506F5
:1007C00006060606070707070708080808090909B3
:1007D000090A0A0A0B0B0B0C0C0C0D0D0D0E0E0E5C
:1007E0000F0F0F10101111111212131314141515ED
:1007F00016161717181819191A1A1B1B1C1D1D1E5F
:100800001E1F2020212222232424252626272829B2
:10081000292A2B2C2D2D2E2F3031323233343536E0
:100820003738393A3B3C3D3E3F40414243444546E0
:100830004748494A4C4D4E4F5051535455565859BC
:100840005A5B5D5E5F616264656668696B6C6D6F63
:100850007072737577787A7B7D7E808283858788D6
:100860008A8C8E8F91939596989A9C9EA0A2A3A510
:10087000A7A9ABADAFB1B3B5B7BABCBEC0C2C4C611
:10088000C9CBCDCFD1D4D6D8DBDDDFE2E4E7E9EBCD
:10089000EEF0F3F5F8FAFDFF0A002530325820009B
:1008A0006B6579626F6172645F7265706F72743AC2
:1008B00020000A0025303258006B6579626F617242
:1008C000645F7365745F6C65643A200064656C5F97
:1008D0006B65795F6269743A2063616E2774206486
:1008E000656C3A20253032580A006164645F6B659C
:1008F000795F6269743A2063616E27742061646471
:100900003A20253032580A00290A002575002F00A8
:100910002575005D28002564002000256400200066
:1009200025640020002564007C0025303258006DCD
:100930006F7573656B6579205B62746E7C78207966
:10094000207620685D287265702F61636C293A20DB
:100950005B005B735D004B6579626F61726420734D
:10096000746172742E0A005B575D005B535D005B1F
:10097000525D005B445D005B435D0004033000009A
:100980000010034B0042004400360037007600326E
:1009900000000010034B0042004400460061006E5E
:1009A00000730000000403090409025B0003010056
:1009B000A0FA09040000010301010009211101004E
:1009C000012240000705810308000A090401000113
:1009D0000300000009211101000122BC000705826B
:1009E0000320000A0904020002030000000921118B
:1009F00001000122220007058303200001070503EF
:100A0000032000011201100100000008424B676042
:100A10000200010203010631FF0974A101097515E5
:100A20000026FF009520750881020976150026FF33
:100A300000952075089102C005010902A1018502F7
:100A40000901A100050919012905150025019505D0
:100A50007501810295017503810105010930093194
:100A60001581257F95027508810609381581257F36
:100A7000950175088106050C0A38021581257F95B8
:100A80000175088106C0C005010980A1018503190F
:100A9000012AB700150126B700950175108100C025
:100AA000050C0901A101850419012AA002150126DE
:100AB000A002950175108100C005010906A10185FC
:100AC00005050719E029E71500250195087501813D
:100AD000020507190029EF1500250195F075018120
:100AE0000205081901290595057501910295017501
:100AF000039101C005010906A101050719E029E7D5
:100B0000150025019508750181029501750881017F
:100B10000507190029FF150026FF009506750881B5
:100B200000050819012905950575019102950175C2
:100B3000039101C011241FBECFEFDAE0DEBFCDBFAD
:100B400004B603FE27C08091A1039091A203A09157
:100B5000A303B091A4038730904BA740B04BD1F4CE
:100B60001092A1031092A2031092A3031092A40367
:100B700014BE84B7877F84BF0FB6F894A895809180
:100B80006000886180936000109260000FBEE0E01A
:100B9000F8E3099511E0A0E0B1E0E6E0F7E602C075
:100BA00005900D92AC3DB107D9F723E0ACEDB1E073
:100BB00001C01D92A13AB207E1F70E94AA2C0C9441
:100BC00081330C940000FF93EF93E091DC01F091EE
:100BD000DD01309709F00995EF91FF910895FC012F
:100BE0008591803011F0EFDFFBCF0895FF27E0E221
:100BF00030E247FF0CC0419597FF09C0EDE26095D8
:100C0000709580959095611D711D811D911D27FF27
:100C100002C0219530E350E2AA27660F771F881F94
:100C2000991FAA1FA41710F0A41B63955A95A9F742
:100C3000AA3008F0A95FA05DAF93F3956115710527
:100C40008105910541F7ED3211F4EF93F395F21719
:100C500018F43F93F395FBCF8F91B5DFFA95E1F749
:100C60000895E991F9918591803021F0853219F04C
:100C7000AADFF9CF089520E0E89455915532C1F3E9
:100C8000503311F4689455915A3348F4505390F30B
:100C9000220F022E220F220F200D250FF4CF0EF46B
:100CA000219589919991533619F3533729F1533589
:100CB00059F1BC0188279927E8945C3621F4899181
:100CC000999168945591543639F446EF7EF077FF48
:100CD0000DC08FEF9FEF0AC055374AE039F0583505
:100CE00040E121F0523642E009F00895FF93EF937E
:100CF0007DDFEF91FF91B7CFFF93EF93FC018191DF
:100D00008030B9F360DFFBCFFF93EF9368DFF1CF63
:100D1000DF93CF93CDB7DEB72596A3DFCF91DF91D9
:100D200008950C94E0090C94DE090C949B060C9435
:100D3000F50681E0089581E0089508950C949D06DC
:100D40001F93CF93DF9300D000D01F92CDB7DEB7B3
:100D500049835A836B833091660289819A8131116C
:100D600014C0662359F0222349F00E940023182F53
:100D7000682F89819A810E94A92203C00E94D422EF
:100D8000182F69817A81812F04C00E940023698114
:100D90007A810F900F900F900F900F90DF91CF916D
:100DA0001F910C947D07FC01262F408151816281A7
:100DB000738184810C94A006CF93DF93EC0160E0F3
:100DC0000E94D306BE01DF91CF910C949E060E9433
:100DD00002270E946224811102C00E940B250E94FA
:100DE000A2150C9491060C949306089581E0089541
:100DF0000C94F606CF93C82F0E9497068C2F0E9462
:100E0000F806CF91089508950E94B51D0E9403072A
:100E10002FEF84E39CE0215080409040E1F700C038
:100E200000000C94DC260F931F93CF93DF93EC010B
:100E300061E00E94D3068C01BE010E9495068823C2
:100E400009F450C0BE01C8010E940B15882309F4A3
:100E500049C0BE01C8010E946516882309F442C03A
:100E6000BE01C8010E94A6168823E1F1BE01C80197
:100E70000E94D1178823B1F1BE01C8010E9454130A
:100E8000882381F18A81882331F101308CE51807AC
:100E900051F00E3D8CE51807D9F001151C45D9F429
:100EA0000E9404071FC08091FE02C82FC095C17028
:100EB000C0FB80F98093FE02CC2329F086E792E004
:100EC0000E94EF050FC084E692E00E94EF050BC080
:100ED0000E940B2507C0CE01DF91CF911F910F918A
:100EE0000C949906C0E08C2FDF91CF911F910F9148
:100EF000089580E090E008950895E72FF0E095E0F0
:100F0000899FE00DF11D112484E0EE0FFF1F8A95EB
:100F1000E1F7E60FF11DEE0FFF1FEC5DFE4F85912F
:100F200094910895880F991FFC01E957FD4F859111
:100F300094910895CF93DF930E947D070E94B20899
:100F4000EC018115904508F041C0C11580E4D80737
:100F500008F0D1C0C83ED10510F5C03ED10508F05B
:100F6000FDC0C83AD10578F4C53AD10508F0A2C051
:100F7000C130D10509F4F2C008F4EEC0C430D10587
:100F800008F0ECC0E9C0CF3BD10508F49BC0C03CE1
:100F9000D10508F4E1C0CE01805C91099EC0C11565
:100FA00090E2D90758F4C11521E0D20708F0D6C065
:100FB000C03FD10508F4D0C0D065D0C0C11580E3D2
:100FC000D80708F08EC0CE019F7087C0C11595E587
:100FD000D90708F043C0C11524E5D20708F0A2C024
:100FE000C11582E5D80708F5C11591E5D90708F0C4
:100FF00085C0CE0174E0969587957A95E1F7837068
:101000009C2F937021E030E002C0220F331F9A958D
:10101000E2F73C68382BCF70C695C69580E2C89F32
:10102000E0011124C22BD32B99C09E0123703327DA
:101030008C2F86958695C115D34508F064C0C1E014
:10104000D0E002C0CC0FDD1F2A95E2F720E2829F9C
:10105000C0011124C82BD92BDC6880C0C11529E53B
:10106000D207A0F4C11588E5D80708F060C0C11503
:1010700096E5D90708F070C08C2F0E9446098F7141
:10108000C82FD0E0DC2FCC27D06268C0C1152AE57C
:10109000D20708F451C0CE0190568115904208F055
:1010A0005BC08D2F8F710E944609DD27D0628F7142
:1010B000D82B54C0C55AD0E0C75ADE4FC881D0E003
:1010C000D0644CC0C85AD0E0CC0FDD1FC55DDE4FE8
:1010D0000990D881C02DD46441C00E949207EC01D0
:1010E0003DC0CE019927D3FF03C0EC01D86C36C0B8
:1010F000EC01D06C33C0DF70D06A30C0DC2FCC275D
:10110000C16FD06A2BC0C1E0D0E002C0CC0FDD1FA0
:101110002A95E2F720E2829FC0011124C82BD92B27
:10112000DA681CC0DC2FCC27C46FD06A17C0DC2F54
:10113000CC27C06FD06A12C08C2F8F700E944609D6
:1011400094E0D695C7959A95E1F7CF70D0E0DC2F63
:10115000CC27D069C82B02C0C0E0D0E0CE01DF911F
:10116000CF9108958238910569F1B0F481339105EA
:1011700009F46DC048F48932910509F463C08A32DC
:10118000910509F469C008958533910509F455C0A6
:1011900089339105B9F00895833E910569F138F4DA
:1011A000803E9105B1F0823E910509F10895863E99
:1011B0009105A9F1873E9105B9F1843E910509F0A9
:1011C00064C023C02091920320FD4FC021FD4DC07B
:1011D00008958091920380FD44C08091930380FF25
:1011E00044C08091920384FD42C083EE4DC0809143
:1011F000920382FF38C0F5CF8091920382FD33C005
:101200008091930380FD31C0ECCF8091930381FFE7
:1012100032C08091920384FD2AC087EE35C0809150
:10122000920383FF26C0F5CF8091920383FD21C0F6
:101230008091930381FD1FC0ECCF8091920385FDC7
:101240001CC01DC08091920385FD19C016C08091FD
:10125000920386FD16C017C08091920386FD13C0CD
:1012600010C089E311C082EE0FC080EE0DC080E097
:101270000BC086EE09C084EE07C089E205C085E395
:1012800003C08AE201C081E390E008959091920347
:1012900092FF0DC0282F2871283019F4877F8460B1
:1012A00006C0282F2471243011F48B7F886093FFAF
:1012B0000DC0282F2871283119F4877E846106C05B
:1012C000282F2471243111F48B7E8861209193039F
:1012D00020FF0DC0382F3871383019F4877F8160B6
:1012E00006C0382F3171313011F48E7F886021FFB4
:1012F0000DC0282F2871283119F4877E816106C01E
:10130000282F2171213111F48E7E886194FD877E12
:101310000895E82FF0E0EE0FFF1FE05CFC4F8081A6
:1013200091810895CF92DF92EF92FF920F931F93D6
:10133000CF93DF9387E992E00E94EF0580E4E82EE7
:1013400083E0F82EC0E0D0E092E9C92E92E0D92ED9
:1013500009E812E0DF93CF93DF92CF920E948806D4
:101360008FE892E00E94EF05F701819191917F0152
:101370000E9449249F938F931F930F930E94880686
:1013800087E892E00E94EF0521968DB79EB70896F8
:101390000FB6F8949EBF0FBE8DBFC530D105D1F6F4
:1013A000DF91CF911F910F91FF90EF90DF90CF9041
:1013B000089580EA8A95F1F7089508950C94DD095F
:1013C0000C94DD09CF93DF93ACE6B1E041E751E047
:1013D00061E070E08D91E82FE295EF70F0E021A1DF
:1013E0008F70EB0102C0CC0FDD1F8A95E2F7CE01B2
:1013F0009C2F9095922391A392A1892B82A34A17A7
:101400005B0741F7ACE5B1E04CE651E061E070E02C
:101410008D91E82FE295EF70F0E021A18F70EB0144
:1014200002C0CC0FDD1F8A95E2F7CE019C2F90956C
:10143000922391A392A1892B82A34A175B0741F7BC
:10144000E6E3F3E0A0E4B3E080E493E011921192CC
:101450001D921D928E179F07C9F785E00E94C10A51
:10146000DF91CF910C94E7066F927F928F929F92BB
:10147000AF92BF92CF92DF92EF92FF920F931F93A2
:10148000CF93DF938CE6C82E81E0D82E06E313E0DD
:1014900090E4A92E93E0B92E712C88248394912C8A
:1014A000F60181916F01C82FC295CF70D0E099A14C
:1014B0008F70740101C0EE0C8A95EAF7892F8E298E
:1014C00089A38AA16E2C609486218AA30E94D909DF
:1014D000ECE5F1E040E050E020E030E06191A62F43
:1014E000A295AF70B0E090968C9190E06F7002C0C2
:1014F000959587956A95E2F780FD08C0C401042E92
:1015000002C0880F991F0A94E2F702C080E090E0C1
:10151000282B392B4F5F5F4F40315105F9F689A1D8
:10152000682269A28AA1E82AEAA2F8018081918151
:101530002817390721F03183208381E001C080E042
:10154000782A0E5F1F4FA016B10609F0A9CF272DEC
:1015500045E060E473E086E393E00E94C20A0E94E3
:10156000F306872DDF91CF911F910F91FF90EF90A0
:10157000DF90CF90BF90AF909F908F907F906F90B3
:1015800008950895FF920F931F93CF93DF93F82E42
:10159000092F162FD72FC42F222349F081E08093E3
:1015A000E0010E949B269093DF018093DE018091F1
:1015B000E0018823D9F08091DE019091DF010E9443
:1015C000A726069798F0EF2DF02FA12FBD2F80E0D2
:1015D00090E04C2F50E08417950734F4219131911D
:1015E0002D933D930196F7CF1092E001DF91CF91BB
:1015F0001F910F91FF900895EF92FF920F931F9309
:10160000CF93DF93F62E472FE82FF0E0711106C03D
:10161000E856F84F6491762F862F72C0272F30E05E
:10162000E856F84FE4910E2F10E056E0659FC00198
:101630001124CFEFD0E0BE010E943F325BEA560397
:10164000C001579F900D11248F0D911D8F0D911D7D
:10165000982F990F890F7E01E21AF30AE09ED001BC
:10166000E19EB00DF09EB00D1124489FA001112401
:10167000452F55277E01E41AF50AE09EA001E19E60
:10168000500DF09E500D11247E01E81AF108E29EE3
:10169000C001E39E900DF29E900D1124892F992791
:1016A000C81BD90BC09FC001C19F900DD09F900D4A
:1016B00011246230710591F048F461157105E1F073
:1016C00061307105A9F48B2F752F19C06430710535
:1016D00061F038F06630710579F00AC0892F7B2FF0
:1016E0000EC08E2F7B2FE52F0AC08E2F792F02C0C0
:1016F000852F7E2FEB2F03C08B2F7E2FE92F6E2F90
:10170000DF91CF911F910F91FF90EF900895089571
:10171000CF93DF93762FE901682F842F0E94FC0A74
:10172000798368838A83DF91CF910895413F08F0E0
:1017300040EF0C94880B80914A03282F269530E0C7
:101740002115310519F48170826005C02B323105F5
:1017500024F08170846580934A0380914D03813F1A
:1017600018F080EF80934D03089588E090E00C948A
:101770001A33CF92DF92EF92FF926B017C010E94AD
:101780009B0BB701A60188E090E0FF90EF90DF90FF
:10179000CF900C943833EAE4F3E083E08083118245
:1017A0008FEF828380EF83831482608171818281D5
:1017B00093810C94B90B8091FE0280FF08C086EEE5
:1017C00095E09F938F930E9488060F900F908091D1
:1017D000FE0280FF0FC080914A0381701F928F9399
:1017E00089EC95E09F938F930E9488060F900F904D
:1017F0000F900F908091FE0280FF0FC080914A03EE
:1018000086951F928F938EEA95E09F938F930E9407
:1018100088060F900F900F900F908091FE0280FF2E
:101820000EC080914B031F928F9384E995E09F93A4
:101830008F930E9488060F900F900F900F908091C9
:10184000FE0280FF0EC080914C031F928F938AE7A7
:1018500095E09F938F930E9488060F900F900F90B2
:101860000F908091FE0280FF0EC080914D031F9269
:101870008F9380E695E09F938F930E9488060F9048
:101880000F900F900F908091FE0280FF0EC080910C
:101890004E031F928F9384E495E09F938F930E9451
:1018A00088060F900F900F900F90089580914A0333
:1018B00080FF02C08695089580E0089580914E03D0
:1018C000833018F48F5F80934E0360914A037091C8
:1018D0004B0380914C0390914D030C94B90B809174
:1018E0004E03882319F0815080934E0360914A0380
:1018F00070914B0380914C0390914D030C94B90B64
:1019000070E00C94EE156091070180914A0380FF0E
:101910000AC08091060123E0829FC0011124815BEF
:101920009C4F0C94800C80910801909109018917BB
:1019300080F7E82FF0E09F01220F331FE20FF31F23
:10194000E15BFC4F1182108212828F5FF0CF909189
:101950004A0390FF16C09091080120910901921747
:1019600070F4E92FF0E0DF01AA0FBB1FEA0FFB1FA5
:10197000E15BFC4F8183608342839F5FF0CF0C94D7
:10198000830C0895CF93DF9300D01F92CDB7DEB7BD
:1019900090914A0390FF0AC09E012F5F3F4F0E9423
:1019A000960B4B8169818A810E94A70C0F900F9042
:1019B0000F90DF91CF910895CF93DF93EC01EC81ED
:1019C000F0E0EC5EF94F4491EAE4F3E0628181815A
:1019D0000E94C20C8C818F5F8C83DF91CF91089520
:1019E000CF93DF93EC01EAE4F3E0438162818C81E1
:1019F0000E94C20C8C818F5F8C83DF91CF91089500
:101A00000F931F93CF93DF9300D01F92CDB7DEB714
:101A10008C018091E10181110AC09E012F5F3F4F2F
:101A200040EF6FEF0E94960B8A818093E101F801ED
:101A30008481813051F028F0823061F44091E101DD
:101A40000AC08091E10140E007C06091E10140E0FF
:101A500080E003C040E080E060E00E94A70CF80155
:101A6000848190E0019663E070E00E9453328483A9
:101A70000F900F900F90DF91CF911F910F910895CC
:101A80004F925F926F927F928F929F92AF92BF928E
:101A9000CF92DF92EF92FF920F931F93CF93DF933A
:101AA00000D01F92CDB7DEB7F82EB62EE42E622EF0
:101AB00090914A0390FFB4C0E92FE695AE2FB0E0B5
:101AC000AF58BE4F8C9180934F029E7F923061F44D
:101AD0009E012F5F3F4F8F2D0E94960B4B81698196
:101AE0008A810E94A70C62C0823019F4E0904D03F5
:101AF0005DC0863019F4F0904B0358C08930D9F39B
:101B0000893109F053C0E9518E2F8170782E81E020
:101B1000A72CA826E695F0E0EC5EF84FC590D4908F
:101B2000412CDD249CE2892E93E0992E60910A01DC
:101B30004616D0F5042D10E00C9DC0010D9D900DB2
:101B40001C9D900D112470E00E943F325F2C71109B
:101B500002C0560E01C0561A8091FE0280FF11C0CD
:101B6000DF92CF921F92AF921F925F921F924F927D
:101B70009F928F920E9488060FB6F894DEBF0FBE28
:101B8000CDBF80910801080F111D9801220F331F4E
:101B9000020F131F9801215B3C4F4E2D6B2D852D9D
:101BA0000E94960B4394C2CF0E94830CF0924B0389
:101BB000B0924C03E0924D036620E9F060914A0335
:101BC00070914B0380914C0390914D030E94B90B8F
:101BD0008091FE0280FF24C080914D031F928F935D
:101BE00080914C031F928F9380914B031F928F9390
:101BF00087E093E00CC08091FE0280FF11C01F922D
:101C0000EF921F92BF921F92FF9280EE92E09F93FD
:101C10008F930E9488060FB6F894DEBF0FBECDBF2B
:101C20000F900F900F90DF91CF911F910F91FF9028
:101C3000EF90DF90CF90BF90AF909F908F907F906C
:101C40006F905F904F900895EAE4F3E09181282F20
:101C50004381628188E0890F0C94400D81E00C94EF
:101C6000240EEAE4F3E09181282F4381628188EF1A
:101C7000890F0C94400D81E00C94310EEAE4F3E0FE
:101C8000628128E0620F08F46FEF282F4381818181
:101C90000C94400D81E00C943E0EEAE4F3E0628186
:101CA00028E0621B08F460E0282F438181810C94B6
:101CB000400D81E00C944D0EEAE4F3E0438128E00E
:101CC000420F08F44FEF282F628181810C94400D60
:101CD00081E00C945C0EEAE4F3E0438128E0421BCF
:101CE00008F440E0282F628181810C94400D81E04E
:101CF0000C946B0E20E00C94400DFF920F931F93F9
:101D0000CF93DF93EC01F12C0FEF10E060910A010B
:101D1000F616F0F4809108012F2D30E0280F311DC8
:101D2000C901880F991F280F391F215B3C4F70E0B4
:101D3000C8010E945332962F8C8140914D036091CF
:101D40004C03F99E800D11240E94960BF394DECF74
:101D50000E94830C9A818C8190FF02C08F5F01C02A
:101D600081508C83DF91CF911F910F91FF90089547
:101D7000AF92BF92CF92DF92EF92FF920F931F9399
:101D8000CF93DF93FC01828180FF02C00FEF01C07F
:101D900001E010E044E1A42E80910A01181708F038
:101DA00043C080910801C12ED12CE601C80FD11D7E
:101DB000CE01880F991FC80FD91FC15BDC4F198254
:101DC00018821A8234E0E32EF12CB12C8091E301C9
:101DD0008B0D85312CF06A2D0E943132892F05C080
:101DE00087FF03C090910A01890F082E000C990B00
:101DF000C816D90691F480914D038E9DA0018F9D48
:101E0000500D112455954795559547959E01609124
:101E10004C0380914B030E94960BB00EF1E0EF1A39
:101E2000F108A1F61F5FB8CF0E94830C8091E301F7
:101E3000013031F4811102C080910A01815007C044
:101E400090E0019660910A0170E00E945332809305
:101E5000E301DF91CF911F910F91FF90EF90DF9001
:101E6000CF90BF90AF900895CF938091080190914B
:101E70000901891770F4E82FF0E09F01220F331F4A
:101E8000E20FF31FE15BFC4F1182108212828F5F21
:101E9000F0CFC0E060910A01C617C0F5EC2FF0E06A
:101EA00070E0CF010E94533220910801820F2091EF
:101EB000E201022E000C330B90E0E217F307CCF0A6
:101EC00020910501022E000C330B2E173F078CF0DA
:101ED0009C01220F331F820F931F9C01215B3C4FFB
:101EE00040914D0360914C0380914B030E94960BEF
:101EF0000BC0FC01EE0FFF1F8E0F9F1FFC01E15B6B
:101F0000FC4F118210821282CF5FC4CF0E94830CDB
:101F1000209104018091E201820F8093E20190916F
:101F20000501920F9093050119165CF4082E000C20
:101F3000990B40910A0150E04150510984179507CF
:101F40001CF0219520930401CF9108950F931F93C6
:101F5000CF93DF938C01FC01848195810196817080
:101F6000992795838483C0E0D5E580910A01C8173D
:101F700000F5809108012C2F30E0280F311DC90198
:101F8000880F991F280F391F215B3C4F4C2F469516
:101F9000F80184819581840F911D817040914D03DA
:101FA00060914C038D9F802D11240E94960BCF5F72
:101FB000DCCFDF91CF911F910F910C94830C0F9385
:101FC0001F93CF93DF93EC0100E010E080910A01B2
:101FD000282F30E00217130724F59091080198018B
:101FE000290F311DA901440F551F240F351F215BF7
:101FF0003C4F869590E04C81081719071CF4442348
:1020000031F002C0411103C040914D0301C040E0D6
:1020100060914C0380914B030E94960B0F5F1F4F02
:10202000D5CF0E94830C8C8190E001968170992716
:102030008C83DF91CF911F910F9108958F929F9282
:10204000AF92BF92CF92DF92EF92FF920F931F93C6
:10205000CF93DF93FC01B280948081E0848300E021
:1020600015E05BE4A52E88248394EE24EA94F12CF9
:102070007BE4C72ED12C80910A01081708F08FC08D
:10208000C02FD0E01C9FF0011D9FF00D1124EC51DA
:10209000FE4F911003C01382128267C02381222356
:1020A00089F1215023833481332319F09A2D921B17
:1020B00001C0922F80914D031C9FF0011D9FF00DD8
:1020C0001124EC51FE4F899FC0011124B6010E94DA
:1020D0003F326283211104C0332311F01482A382A2
:1020E00022E02B1508F441C01C9FF0011D9FF00D4C
:1020F0001124EC51FE4F80914B03808380914C035F
:10210000818333C00E94F5328230914074F582E0C1
:102110008B1530F40E94F532B7010E94533202C091
:1021200080914B031C9FF0011D9FF00D1124EC5179
:10213000FE4F808322E02B1558F40E94F532209147
:102140004C032695622F70E00E945332820F02C02A
:1021500080914C031C9FF0011D9FF00D1124EC5148
:10216000FE4F81831282A3828482809108019E01A6
:10217000280F311DC901880F991F280F391F215BB6
:102180003C4F1C9FF0011D9FF00D1124EC51FE4FA0
:102190004281618180810E94960B0F5F6CCFDF913D
:1021A000CF911F910F91FF90EF90DF90CF90BF9054
:1021B000AF909F908F900C94830C60914A0366952A
:1021C00070E04BE050E08BE091E00E940533892BFA
:1021D00019F481E0809350020E949B26909349025B
:1021E000809348028091FE0280FF08C087EC92E055
:1021F0009F938F930E9488060F900F9008951092DE
:1022000050028091FE0280FF08C08EEA92E09F9308
:102210008F930E9488060F900F90089590914A0323
:1022200090FF54C09170811102C0926006C08B3241
:1022300010F0946502C0880F982B90934A03662390
:10224000B1F060914A0370914B0380914C039091DF
:102250004D030E94B90B8091FE0280FF1BC080914C
:102260004A0386951F928F938AE894E00BC0809171
:10227000FE0280FF0FC080914A0386951F928F93C4
:102280008CE694E09F938F930E9488060F900F90A6
:102290000F900F9060914A03669570E04BE050E01C
:1022A0008BE091E00E940533892B19F00E94FF100A
:1022B00002C00E94DD1081E080934B0240914D03EB
:1022C00060914C0380914B030C947A0E0895682F13
:1022D00090914A03969581E0890F8B3208F081E056
:1022E0000C940E1181E00C946711682F90914A03B1
:1022F00096958FEF890F09F48AE20C940E1181E014
:102300000C94751161E00C940E1180914A03816068
:1023100080934A038091FE0280FF0DC01F9281E0EE
:102320008F938EEF93E09F938F930E9488060F9078
:102330000F900F900F9080914A0386950C94821114
:1023400060E00C940E1180914E02811160C080916A
:10235000FE0280FF08C08DE295E09F938F930E945C
:1023600088060F900F908091FE0280FF08C087E1E1
:1023700095E09F938F930E9488060F900F900E9484
:102380006224811110C08091FE0280FF08C08FEE90
:1023900094E09F938F930E9488060F900F900E9465
:1023A0000B250E94CB0B0E94B50B60934A037093E0
:1023B0004B0380934C0390934D036E7FC1F4809147
:1023C000FE0280FF08C086EA94E09F938F930E94EC
:1023D00088060F900F900E94CB0B0E94B50B609364
:1023E0004A0370934B0380934C0390934D030E94D8
:1023F0009B0B0E94DB0B1092500280914A0380FFDE
:1024000003C086950E94A01181E080934E0208953A
:1024100080914A03816080934A038091FE0280FF8D
:102420000DC01F9281E08F9385EC93E09F938F9373
:102430000E9488060F900F900F900F9080914A0392
:1024400086950C94A01180914A038E7F80934A0355
:1024500060914A0370914B0380914C0390914D031E
:102460000E94B90B8091FE0280FF0FC080914A0349
:1024700081701F928F938DE893E09F938F930E94BA
:1024800088060F900F900F900F900E94FF102FEF73
:1024900080E792E0215080409040E1F700C00000CA
:1024A0000C94830C8091FE0280FF10C080914A033F
:1024B000809581701F928F9385E394E09F938F9313
:1024C0000E9488060F900F900F900F9080914A0302
:1024D00080FD0C9423120C94851180914A038E7F09
:1024E00080934A038091FE0280FF0CC01F921F92CE
:1024F00083E593E09F938F930E9488060F900F903F
:102500000F900F900E94FF102FEF80E792E0215074
:1025100080409040E1F700C000000C94830C0F93C2
:102520001F93CF93DF9380915002882309F49CC0BE
:1025300080914F02E0914A03E695E81BE0934A023E
:10254000823049F4F0E0E05FF94FE491CE2FD0E023
:102550000CED1CE059C0863049F4F0E0E35FF94F20
:10256000E491CE2FD0E000EF1CE04EC0893051F452
:10257000E695F0E0E65FF94FE491CE2FD0E00DE76D
:102580001EE042C08F3051F4E695F0E0E95FF94F6C
:10259000E491CE2FD0E008EB1EE036C0853149F43F
:1025A000F0E0EC5FF94FE491CE2FD0E004E31FE0C0
:1025B0002BC08831D9F0833239F4E2E0F6E0C591DE
:1025C000D49100E01DE020C08432A9F08532C1F42E
:1025D0008E2F63E00E942532E92FF0E0E150FA4FA0
:1025E000E491CE2FD0E00EE110E10EC0C8EED3E0B2
:1025F00006EA1FE009C0C4EFD1E00FED1FE004C000
:10260000C0EDD7E007E81BE080914B02882389F0FA
:1026100010924B020E949B269E0120953095820FBE
:10262000931F909349028093480210924D0210929A
:102630004C0280914802909149020E94A7268C1773
:102640009D0790F0E0914802F0914902CE0FDF1F04
:10265000D0934902C093480288E492E0F801DF91E8
:10266000CF911F910F910994DF91CF911F910F91FD
:102670000895882311F0FA0101C0FB010994CF935A
:10268000DF93C82FD62F0E94560C8C1740F00E9463
:10269000560C8D1720F4DF91CF910C9472118C2F72
:1026A000DF91CF910C9482110F931F93CF93FB0175
:1026B000C281CC2309F463C08C010E948123827201
:1026C000F801E25CFC45E431F10508F059C0EA5A32
:1026D000FF4F0C9489320E94521206C04FE751E11D
:1026E00062E771E10E943913C0E04AC042E751E15C
:1026F0006FE771E1F7CF4BE35EE06EE27EE0F2CF91
:102700004EE25EE06BE37EE0EDCF49E55EE06AE439
:102710007EE0E8CF4AE45EE069E57EE0E3CF47E7AC
:102720005EE068E67EE0DECF48E65EE067E77EE0FA
:10273000D9CF4FE65CE06EE57CE0D4CF4EE55CE0BF
:102740006FE67CE0CFCF81E017C065E082E010C08B
:1027500068E086E00DC06EE089E00AC064E18FE0C9
:1027600007C067E185E104C088E106C062E289E153
:102770000E943F13B9CF83E20E948211B5CFC1E01E
:102780008C2FCF911F910F9108950E946224811187
:1027900002C00E940B250E94932480938B03282F54
:1027A00026952695269530E02430310524F0877053
:1027B000886180938B0380918B0380FF04C0869592
:1027C0008695869501C080E00C94401520918B037E
:1027D000822F869586958695482F50E04330510587
:1027E00054F48F5F982F990F990F990F822F87704C
:1027F000892B80938B0380918B03816080938B0363
:102800000E9497248091FE0280FF11C080918B036B
:102810008695869586951F928F9380E897E09F9383
:102820008F930E9488060F900F900F900F908091C9
:102830008B038695869586950C94401580918B0325
:10284000982F969596959695A1F0915E990F990F70
:10285000990F8770892B80938B03887F91E009F40F
:1028600090E080918B0390FB80F980938B030E9412
:1028700097248091FE0280FF11C080918B03869582
:10288000869586951F928F9388E697E09F938F9306
:102890000E9488060F900F900F900F9080918B03ED
:1028A0008695869586950C94401580918B0380FDC6
:1028B0001FC0816080938B03813019F489E080937D
:1028C0008B0380918B030E9497248091FE0280FFEE
:1028D00008C080E497E09F938F930E9488060F9032
:1028E0000F9080918B038695869586950C94401564
:1028F000089580918B0380FF14C08E7F80938B039B
:102900000E9497248091FE0280FF08C08DE297E02C
:102910009F938F930E9488060F900F9080E00C94F5
:1029200040150895CF93C0918B03C1708091FE0232
:1029300080FF0CC01F92CF9382E597E09F938F9307
:102940000E9488060F900F900F900F90CC2319F0E3
:10295000CF910C947914CF910C94551490918B03D2
:10296000892F8695869586958F5F8F7197708430B5
:1029700038F4880F880F880F892B80938B0302C04F
:1029800090938B0380918B03887F91E009F490E012
:1029900080918B0390FB80F980938B030E94972496
:1029A0008091FE0280FF11C080918B0386958695F1
:1029B00086951F928F9389E197E09F938F930E9452
:1029C00088060F900F900F900F9080918B03869543
:1029D000869586950C944015843008F083E090919C
:1029E0008B039770282F220F220F220F922B909388
:1029F0008B03987F21E009F420E090918B0320FB6A
:102A000090F990938B030C9440150E94EC148091E4
:102A10008B030C9497249C01FB018281882349F14C
:102A20002D3BFCE53F07C9F040F42B3BECE53E07AE
:102A300069F02C3B3C4561F008952F3B9CE539073C
:102A400091F070F0203C3C4589F0089583E001C08E
:102A500080E00E94051580E008950E941E14FBCFBF
:102A60000E94E613F8CF0E949214F5CF0E94AE1494
:102A7000F2CF81E00895259A2D9808952D98089514
:102A8000CF92DF92EF92FF92CF93C82F843050F411
:102A9000811109C0809180008F77809380000E940F
:102AA0003E1506C0C3E0809180008068809380005E
:102AB0002C2F30E0AFEFBFEF0E948F3223E030E0E9
:102AC00040E050E00E946732C9012C3764E13607CC
:102AD00028F469E070E00E943F3229C0DA01C901A0
:102AE0008A50974DAF4FBF4F6627782F892F9A2F67
:102AF00025EF38E241E050E00E94673269017A0137
:102B0000CA01B9010E9415329B01AC01C701B6018F
:102B10000E941532BB27A92F982F872F009721E0FD
:102B2000A207B10511F0BC0102C06FEF7FEF7093F7
:102B3000890060938800CF91FF90EF90DF90CF9055
:102B4000089508950E943B1582E88093800089E1F2
:102B5000809381008FEF9FEF909387008093860092
:102B60000C94C5135DB1E42FEF7021E030E001C09B
:102B7000220FEA95EAF7352F322B3DB942954F7077
:102B8000E42FF0E032A1422F4095342342A1242BC0
:102B90004FB7F894FC01CB01880F991F680F791F7C
:102BA0006E0F7F1FE617F70789F0819198E02EB925
:102BB000000000C087FF3EB9880F000000C000C0C1
:102BC00000C03EB900C09A9591F7ECCF4FBF87EC9B
:102BD00090E00197F1F700C00000089542EC0C94DA
:102BE000B2150F931F93CF93DF93C62FD42F122FBD
:102BF000FC0182818823C9F0609353020E949B26C6
:102C0000909352028093510280E28C0F883008F03A
:102C100057C0C77081E001C0880FCA95EAF7DF91FD
:102C2000CF911F910F910C94FD1A8091530268135C
:102C300030C080915102909152020E94A726883C98
:102C4000910538F500E20D0FCD17B9F080E28C0F39
:102C5000883040F4C77081E001C0880FCA95EAF758
:102C60000E94041B083028F581E09D2F977001C059
:102C7000880F9A95EAF70E94FD1A812F0E94EA1A9E
:102C80000830F0F4D77081E001C0880FDA95EAF7D8
:102C90000AC080E28C0F883098F4C77081E001C0D0
:102CA000880FCA95EAF7DF91CF911F910F910C948D
:102CB000041B812FDF91CF911F910F910C94EA1A81
:102CC000DF91CF911F910F9108959C01CB01233F7C
:102CD0004CE53407F9F078F4283DFCE53F07B9F0FE
:102CE000293D4CE5340711F1273D3C4531F526E2FD
:102CF00041EE61EE1EC0253FFCE53F0799F070F004
:102D0000263F3C45D1F427E245EE66EE12C027E2AD
:102D100045EE0EC026E241EE60EE0BC027E245EE26
:102D200064EE07C026E241EE62EE03C028E241E015
:102D300065EE0E94F11580E00895FC0182818823F0
:102D400019F010925302089581E00895CF93DF9314
:102D5000EC01FB018281882309F41FC1C230FCE52C
:102D6000DF0708F41BC1C6319CE5D90738F09E0186
:102D70002A5F3C452930310508F010C10E947524B6
:102D80009093930380939203C031ECE5DE0709F43E
:102D9000C3C008F041C0C8308CE5D80709F49AC018
:102DA000F0F4C430ECE5DE0709F487C068F4C23003
:102DB0008CE5D80709F477C0C330DC4509F0E3C0DF
:102DC00080919203826076C0C630ECE5DE0709F49C
:102DD0006EC008F07BC08091920388606BC0CC30DD
:102DE0008CE5D80709F485C068F4CA30ECE5DE0745
:102DF00009F474C008F079C00E94B51D8091920357
:102E0000806858C0CE308CE5D80709F476C008F049
:102E10007FC0809192038BC0CB3FECE5DE0709F4C5
:102E20004FC018F5C3318CE5D80709F47DC078F49C
:102E3000C131ECE5DE0709F473C0C231DC4509F0AD
:102E4000A2C00E94B51D809192038F7733C0C53117
:102E50008CE5D80709F472C008F486C0CA3FDC4587
:102E600009F091C0809193033EC0CF3FFCE5DF079E
:102E700009F45FC058F4CD3F9CE5D90709F444C07C
:102E800008F43FC08091930382602DC0C130FDE5FE
:102E9000DF0709F475C008F45DC0C230DD4509F0F4
:102EA00072C080E06EC080919203816003C0809107
:102EB000920380618093920366C08091920311C057
:102EC000809193038260809393035DC0809192030D
:102ED0008062F0CF809192038064ECCF8091920366
:102EE00088608460E7CF8160EECF809192038E7F0F
:102EF000E1CF809192038D7FDDCF80919203877F18
:102F0000D9CF8091930318C0809193038D7FDBCF3D
:102F1000809192038F7ECECF809192038F7DCACF16
:102F2000809192038F7BC6CF80919203877F8B7FA6
:102F3000C1CF809193038D7F8E7FC5CF8091920307
:102F400082FB222720F991E0922790FB82F990FBE7
:102F500083F9B0CF80919303982F909591708E7FD5
:102F6000892B90FB81F9AFCF0E94B51D8091920310
:102F700087FB222720F991E0922790FB87F99ACFCF
:102F800081E00E940D2580919203909193030E940D
:102F900086240E94B51D80E001C081E0DF91CF91C1
:102FA0000895CF93DF9386319C4541F5EB010E9454
:102FB0008123982F8A81209116013091170188234F
:102FC00079F09A7A81E009F480E0809354029111BB
:102FD00002C069E201C065E3C9010E94CA250AC0B6
:102FE00080915402811102C069E201C065E3C90108
:102FF0000E94D5250E94CF2380E001C081E0DF91AF
:10300000CF91089590935A02809359020895E091C8
:103010005902F0915A02309721F00190F081E02D91
:10302000099480E00895EF92FF921F93CF93DF936E
:10303000FC01A0915902B0915A02109709F442C0C4
:1030400080912A01882341F08091920387FF04C078
:103050008081818385E08083EF011296ED91FC9160
:103060001397CE0109958091FE0282FF2BC080FF4D
:1030700004C080EA98E00E94EF0518E08AE9E82E93
:1030800088E0F82E8091FE0280FF0BC088811F929D
:103090008F93FF92EF920E9488060F900F900F90EF
:1030A0000F90115021961111EDCF8091FE0280FFFB
:1030B00009C088E998E0DF91CF911F91FF90EF90D0
:1030C0000C94EF05DF91CF911F91FF90EF90089541
:1030D000E0915902F0915A02309739F022E0DC0178
:1030E0002C930480F581E02D0994089520915702D6
:1030F000309158022817390771F090935802809345
:103100005702E0915902F0915A02309721F006805F
:10311000F781E02D099408952091550230915602CF
:103120002817390771F09093560280935502E09169
:103130005902F0915A02309721F00084F185E02D78
:103140000994089585B7806885BF85B7806885BF75
:10315000089508950C94A9180C94AA180C94A91811
:103160000C94A9180E94A2180E94AE180C94AC18D6
:1031700081E008950C94B8180E9492260E94E209FA
:103180000E9416270E94C5130E94A3110C94B01828
:10319000CF93C82F8091FE0282FF1EC080FF04C023
:1031A00089EB98E00E94EF058091FE0280FF0CC041
:1031B0001F92CF9384EB98E09F938F930E94880691
:1031C0000F900F900F900F908091FE0280FF04C02F
:1031D00082EB98E00E94EF058C2FCF910C94FA06B9
:1031E0007F928F929F92AF92BF92CF92DF92EF9297
:1031F000FF920F931F93CF93DF93CDB7DEB72A973C
:103200000FB6F894DEBF0FBECDBF0E94340A0E94F5
:10321000BA18811111C08FEF89838A831B820E94A3
:103220009B268160782F9D838C8349815A816B8195
:103230008D810E94A4194FC04CE5A42E42E0B42E0B
:1032400000E010E0702E802F0E9489096C01F501CA
:10325000819091905F01882699268114910431F420
:103260000F5F1F4F0530110569F7D5CF8091FE0222
:1032700081FD0E94920980E0EE24E394F12C9401F8
:103280002E213F21232B09F18E837F82CE20DF2048
:1032900081E0CD2809F480E088870E949B26816028
:1032A000782F9A8789874E815F8168858A850E94F9
:1032B000A419000F111FF801E45AFD4F808191817C
:1032C000E826F926F182E08206C08F5FEE0CFF1C33
:1032D0008031A9F6C5CF0E948F120E94A1150E94CD
:1032E0002A290E94071890915B028917C9F00E9451
:1032F000071880935B022A960FB6F894DEBF0FBEC4
:10330000CDBFDF91CF911F910F91FF90EF90DF9094
:10331000CF90BF90AF909F908F907F900C94C818E3
:103320002A960FB6F894DEBF0FBECDBFDF91CF91C6
:103330001F910F91FF90EF90DF90CF90BF90AF90D3
:103340009F908F907F900895CF93DF93CDB7DEB796
:103350002B970FB6F894DEBF0FBECDBF4F835887B3
:1033600069877A878B87DE01119686E0FD011192CD
:103370008A95E9F785E0FE01379601900D928A95CE
:10338000E1F749815A816B817C818D819E810E9408
:103390006E202B960FB6F894DEBF0FBECDBFDF9127
:1033A000CF910895FC01808191810E94422308956C
:1033B000CF93882309F4A4C0C82F8238C1F40E9497
:1033C000071881FD9DC069E3809116019091170156
:1033D0000E94CA250E94CF232FEF81EE94E0215056
:1033E00080409040E1F700C0000069E319C08338D5
:1033F00001F50E94071880FD83C063E580911601E6
:10340000909117010E94CA250E94CF232FEF81EED1
:1034100094E0215080409040E1F700C0000063E557
:1034200080911601909117010E94D525CF910C949F
:10343000CF238438C1F40E94071882FD61C067E47D
:1034400080911601909117010E94CA250E94CF23F6
:103450002FEF81EE94E0215080409040E1F700C0D2
:10346000000067E4DDCF8CEF8C0F813AD0F46C2F35
:1034700080911601909117010E942825882349F018
:103480006C2F80911601909117010E94D5250E9402
:10349000CF236C2F80911601909117010E94CA25AD
:1034A000C5CF80E28C0F883048F4C77081E001C03E
:1034B000880FCA95EAF70E948423B8CFEBE5EC0F9A
:1034C000E33040F4F0E0E653FE4F808190E0CF918E
:1034D0000C947618E8E5EC0FE73150F4F0E0EE0FCD
:1034E000FF1FE456FE4F80819181CF910C948C1880
:1034F000C03F30F08C2F0E94B027CF910C949D28B4
:10350000CF910895882309F464C0823879F40E9429
:10351000071881FF5EC069E3809116019091170141
:103520000E94CA250E94CF2369E310C08338B1F4FA
:103530000E94071880FF4DC063E5809116019091AD
:1035400017010E94CA250E94CF2363E580911601CE
:10355000909117010E94D5250C94CF23843879F4DB
:103560000E94071882FF35C067E480911601909190
:1035700017010E94CA250E94CF2367E4E7CF9CEF82
:10358000980F913A10F4682FE1CF90E2980F98309D
:1035900050F4877091E001C0990F8A95EAF7892F5E
:1035A0000E948A23D9CF9BE5980F933020F480E0C6
:1035B00090E00C94761898E5980F973120F480E00D
:1035C00090E00C948C18803F20F00E9418280C94F6
:1035D0009D280895CF93C82F0E94D819C93349F464
:1035E0002FEF87EE93E0215080409040E1F700C03C
:1035F00000008C2FCF910C94821A882321F00E9416
:1036000084230C94CF230895882321F00E948A23D9
:103610000C94CF230895CF92DF92EF92FF920F93F5
:103620001F93CF93DF937C01062FC72FFC011581D9
:1036300012951F70D281D1110E94A1230E947A237A
:10364000882379F0DD2369F080E2800F883048F02C
:1036500082E00E9419240E947A2391E0D82ED92674
:1036600001C0D12CCC2EC2948FE0C8228C2D90E0CA
:10367000FC01E659FF4F0C9489328C2F807FCF706C
:10368000882311F0C295C07FDD2399F0CC2309F483
:10369000C4C180E2800F883010F0011104C08C2F6B
:1036A0000E94842303C08C2F0E9494230E94CF2366
:1036B000B4C1802F0E94821ACC2309F4D3C180E2C6
:1036C000800F883010F0011104C08C2F0E948A23D3
:1036D00003C08C2F0E949A230E94CF23C3C18C2F3A
:1036E000807FCF70803211F0C295C07F002319F027
:1036F0000130C9F022C0DD2371F0112341F01130F7
:1037000031F40E94B4238C2B0E94BC23ABC10E94D5
:10371000B4238C2B1DC0112319F0113009F4A2C160
:103720000E94C52325C0DD2321F0163008F09AC180
:103730000EC0153008F096C11BC0DD2361F01123C7
:1037400031F0F701858180FF68C18F7085838C2FF0
:103750000E94FD1A87C1112359F0093309F06EC187
:10376000FFEF27EE83E0F15020408040E1F764C195
:103770008C2F0E94041B76C18C2F869586958370B2
:1037800019F0813061F06EC1DD2321F0802F9C2F74
:10379000937002C080E090E00E9476186BC1DD2338
:1037A00021F0802F9C2F937002C080E090E00E9457
:1037B0008C1860C1DD23F9F0053F51F0063F71F030
:1037C000043FA9F480918C0390918D0381600BC01C
:1037D00080918C0390918D03826005C080918C0351
:1037E00090918D03846090938D0380938C03802F40
:1037F0000E94B0271EC0053F51F0063F71F0043F04
:10380000A9F480918C0390918D038E7F0BC08091E1
:103810008C0390918D038D7F05C080918C039091D6
:103820008D038B7F90938D0380938C03802F0E9458
:1038300018280E949D281EC18C2F837009F045C056
:10384000D11114C1402F429546954770440F440F43
:10385000602F6F70862F90E0A0E0B0E0042E04C0CF
:10386000880F991FAA1FBB1F0A94D2F704FF10C02C
:103870000FE010E020E030E004C0000F111F221F15
:10388000331F4A95D2F7009510952095309503C0C7
:1038900000E010E09801C695C695C370BC01CD014B
:1038A000602B712B822B932BC23049F058F4C1301E
:1038B00019F00E94BF21DAC00E94AD21D7C00E943A
:1038C000D121D4C00E94AB21D1C0DD2319F08C2FAF
:1038D000817001C08695882309F4C8C0402F4295A5
:1038E00046954770440F440F602F6F70862F90E00D
:1038F000A0E0B0E0042E04C0880F991FAA1FBB1FD0
:103900000A94D2F704FF10C00FE010E020E030E08E
:1039100004C0000F111F221F331F4A95D2F70095D4
:1039200010952095309503C000E010E09801C695F1
:10393000C695C370BC01CD01602B712B822B932BDC
:10394000C23049F058F4C13019F00E9484228EC070
:103950000E9472228BC00E94962288C00E94E5219C
:1039600085C0CF70DD2339F08C2F0E940B22802F71
:103970000E94FD1A7BC0802F0E94041B8C2F0E9486
:103980002C2274C0023F01F128F4003F41F0013FB6
:10399000A1F03FC0033FF9F0043F39F13AC0DD2305
:1039A00041F0153008F05EC08C2F8F710E945122BB
:1039B00059C0163008F056C0F7CFDD2339F08C2FF0
:1039C0008F710E940B224EC0DD23C9F38C2F8F71A3
:1039D0000E942C2247C0DD2329F08C2F8F710E947A
:1039E000F62140C00E94F1213DC0DD2349F0CF7196
:1039F0008C2F0E940B2263E08C2F0E94042432C083
:103A000081E00E941924123068F182E00E9419249A
:103A100029C0DD2331F0112391F2802F0E94D819A3
:103A200021C0112399F2093349F49FEFE7EEF3E047
:103A30009150E040F040E1F700C00000802F0E946C
:103A4000821A10C04C2F4F70602FC7010E94790757
:103A50000E941C210FC04C2F4F70602FC7010E9485
:103A60007C0708C088EF8C0D843020F40E94071872
:103A70000E94FA06DD20C9F00E94762380FD15C061
:103A8000F70112820E9470230E940B22C7010E943C
:103A9000761D0E947023DF91CF911F910F91FF90AF
:103AA000EF90DF90CF900C942C22DF91CF911F915B
:103AB0000F91FF90EF90DF90CF9008950F931F9399
:103AC000CF93DF93EC01688179818A810E944D2335
:103AD0008C010E94A8220E949921B801CE010E9467
:103AE0000B1BDF91CF911F910F910895CF93DF931F
:103AF000FC019081818123813481232B31F08F3F20
:103B000031F481E09F3F19F403C081E001C080E0FF
:103B100080FD0EC0EF01CF010E941307882341F002
:103B2000CE010E945E1DCE01DF91CF910C94DC0688
:103B3000DF91CF9108950E94A1230E94B1230E949A
:103B4000CF230E94492A0E949D2880E090E00E9495
:103B5000761880E090E00C948C188091160190917A
:103B600017010E94E0250C949B1D0E9491230C9448
:103B7000AD1DE92FE295EF704E2F50E0FA0132971C
:103B8000EE30F105B0F4E658FF4F0C948932803FD7
:103B900091F018F4883E68F40EC0843F51F40BC0D5
:103BA000883E48F0813F29F406C093FB882780F9BE
:103BB000089580E0089581E008950E9442230E94C4
:103BC000B91D0895CF93DF9300D000D01F92CDB7D9
:103BD000DEB70F900F900F900F900F90DF91CF9165
:103BE0000895CF93DF9300D000D000D0CDB7DEB7DB
:103BF00026960FB6F894DEBF0FBECDBFDF91CF91F2
:103C000008951F93CF93DF93C091670216E08091D0
:103C10006802C81799F0D0E01C9FF0011D9FF00DBD
:103C20001124E759FD4F4081518162817381848164
:103C300095810E94F11D2196C770E9CFDF91CF9148
:103C40001F9108954091990250919A0260919B02B0
:103C500070919C0280919D0290919E020C94F11DA6
:103C60000F931F93CF93DF9380919E0282958F7065
:103C700009F05DC080919B02882309F458C08091AF
:103C80006702109168026091990270919A02C09146
:103C90009C02D0919D0291E06F3F09F090E0292FA6
:103CA00006E0811709F443C0209721F07F3F21F0FF
:103CB00030E003C031E001C0322F90E030FD34C06D
:103CC000089FF001099FF00D1124DF01A759BD4F96
:103CD00011963C911197371327C03C91361324C09D
:103CE00012963C91129731111FC013964D915C9121
:103CF00014974C1B5D0B483C5105B0F480919E021B
:103D00008F70806180939E02E259FD4F80818F7099
:103D10008061808389E992E00E94761DDF91CF91D6
:103D20001F910F910C94011E01968770BACFDF91FD
:103D3000CF911F910F9108959F92AF92BF92CF9212
:103D4000DF92EF92FF920F931F93CF93DF93CDB744
:103D5000DEB761970FB6F894DEBF0FBECDBF8C0102
:103D600085E0F801DE011D9601900D928A95E1F73C
:103D7000F80140815181E2809091990260919A020C
:103D800020919C0230919D022115310531F06F3F49
:103D900031F481E09F3F19F403C081E001C080E06D
:103DA000F82FF1709F2E80FD46C1F801A380B480EA
:103DB00089E9C82E82E0D82EF0909B02F501E21B23
:103DC000F30BFF2009F4DFC080919E02E83CF1056F
:103DD00008F09BC0282F207F09F052C0561313C053
:103DE000491311C0FE2CE1100EC08F7080618093CA
:103DF0009E020E94221EC6010E94761D80919E0294
:103E0000F801858358C1AB2831F05F3F31F481E080
:103E10004F3F19F403C081E001C080E080FD03C082
:103E200081E08E2502C080E090E0F82FF170FF2E37
:103E300080FF1CC0809167022091680236E08217E3
:103E400009F417C190E0389FF001399FF00D11245B
:103E5000E759FD4F6181561306C06081461303C0C8
:103E60006281E61203C001968770E9CFFE2CEE2036
:103E700009F421C180919E02816080939E025AC004
:103E8000561306C0491304C0E11002C0F8019FC0D8
:103E90004D875E878D859E850E94DD1D882379F183
:103EA000EE2069F120919E02822F82958F7090E022
:103EB000029774F08091990290919A0298878F836B
:103EC0001986BB86AA862C87CE0107960E94761D8E
:103ED00086E0F801A9E9B2E001900D928A95E1F738
:103EE0000E94301E0E94221E0DC0561729F14D87D8
:103EF0005E878D859E850E94DD1D81112CC0C801C5
:103F00000E94761DFF24F394D6C0282F207F69F7E6
:103F10007A2DB98AA88A6E2D89890E94E21D89E9C5
:103F200092E00E94761D86E0F60111928A95E9F7EB
:103F30000E94221EF12CBFC04913D9CFE110D7CF68
:103F4000F8018583C8010E94761D86E0F601119272
:103F50008A95E9F7B0C0EE2091F220919E02822F5F
:103F600082958F7090E002970CF4B2CF8091990205
:103F700090919A029A8389831B82BD82AC822E83A0
:103F8000CE010196A3CFE83CF10508F047C0FE2C16
:103F9000EE2009F4B4CF561330C049132EC020913F
:103FA0009E0220FD21C0822F82958F70482F50E005
:103FB00041155105C9F0F80125834F30510541F0F5
:103FC0008F5F982F9295907F822F8F70892B85839A
:103FD000C8010E94761D86E0F801A9E9B2E00190CF
:103FE0000D928A95E1F742C086E0F801A9E9B2E0B6
:103FF00001900D928A95E1F75EC04D875E878D85B1
:104000009E850E94DD1D811163CF80919E0281609B
:1040100080939E02C8010E94761D4DC07A2DB98AF8
:10402000A88A6E2D89890E94E21D86E0F601119210
:104030008A95E9F71BC0EE2009F461CF4D875E87B2
:104040008D859E850E94DD1DF82E882309F457CFAB
:1040500086E0F801A9E9B2E001900D928A95E1F7B6
:1040600089E992E00E94D2190E94301E0E94221E0D
:1040700022C04D875E878D859E850E944223292F11
:1040800022952F70223028F49F7039F0811105C0DD
:104090000BC0243028F49F7049F4805E883020F0F3
:1040A000C8010E94761D9F2CF92C05C0F80195814E
:1040B000907F99F7F9CF8F2D61960FB6F894DEBFF8
:1040C0000FBECDBFDF91CF911F910F91FF90EF9069
:1040D000DF90CF90BF90AF909F9008951F93CF93A4
:1040E000DF93CDB7DEB72C970FB6F894DEBF0FBEC7
:1040F000CDBF4F83588769877A878B879C87CE018E
:1041000007960E949C1E8823D1F09F8188852A856E
:104110003B85232B31F08F3F31F481E09F3F19F431
:1041200003C081E001C080E080FD47C04F81588519
:1041300069857A858B859C850E94F11D3EC086E04D
:10414000FE013796DE01119601900D928A95E1F7F6
:10415000FF81E8856A857B856115710531F0EF3F48
:1041600031F481E0FF3F19F403C081E001C080E039
:1041700080FD23C02091680230E0C901019687705C
:1041800099274091670250E084179507F1F1F98370
:10419000EA837D836C8396E0929FD001939FB00D5C
:1041A0001124A759BD4FFE01319601900D929A95A9
:1041B000E1F7809368020E94011E16E08091670279
:1041C00090916802891771F1189FC00111248759D5
:1041D0009D4F0E949C1E882329F1E09167021E9F3B
:1041E000F0011124E759FD4F4081518162817381B3
:1041F000848195810E94F11D8091670290E0019673
:104200008770992780936702D9CF0E94B51D1092BD
:10421000680210926702E9E9F2E086E0DF011D9290
:104220008A95E9F72C960FB6F894DEBF0FBECDBF86
:10423000DF91CF911F910895EF92FF920F931F93FB
:10424000CF93DF938C01892B09F46CC0F12CEE2401
:10425000E394E8012196F8018491843740F4843096
:1042600008F051C0813081F0823019F15BC0853790
:1042700009F444C0A8F19CE7980F903708F052C0A9
:104280008F770E94821A41C00E5F1F4FFE018491FA
:1042900090E2980F983050F48770FE2D01C0FF0F08
:1042A0008A95EAF78F2F0E94A42314C00E94D81980
:1042B0002DC00E5F1F4FFE01849190E2980F983041
:1042C00060F48770FE2D01C0FF0F8A95EAF78F2FEB
:1042D0000E94AA230E94CF2319C00E94821A16C0EE
:1042E0000E5F1F4FFE01C491CC2381F08FE99FE048
:1042F0000197F1F700C00000C150F6CF0E5F1F4FCD
:10430000FE01F49003C00E94D8198E018F2D8823DE
:1043100009F49FCFEFE9FFE03197F1F700C000000B
:104320008150F5CFDF91CF911F910F91FF90EF90CA
:104330000895089508950C949A210C949B210E944D
:104340009D216093D5027093D6028093D7029093FB
:10435000D8020C949B1D0C949F210F931F930091E6
:10436000D5021091D6022091D7023091D802602B4D
:10437000712B822B932B1F910F910C949F210F93E4
:104380001F930091D5021091D6022091D70230914F
:10439000D80260237123822393231F910F910C94E1
:1043A0009F210F931F930091D5021091D602209167
:1043B000D7023091D80260277127822793271F9157
:1043C0000F910C949F210C949A210E94E3216093F9
:1043D000D1027093D2028093D3029093D4020C94B2
:1043E0009B1D60E070E0CB010C94E5210F931F93BF
:1043F00041E050E060E070E08A019B0104C0000FE2
:10440000111F221F331F8A95D2F7C901B8011F91CE
:104410000F910C94E5210F931F9341E050E060E071
:1044200070E004C0440F551F661F771F8A95D2F7AE
:104430008091D1029091D202A091D302B091D40286
:104440008A019B01082B192B2A2B3B2BC901B80190
:104450001F910F910C94E5210F931F9341E050E0C1
:1044600060E070E004C0440F551F661F771F8A95F7
:10447000D2F740955095609570958091D1029091BA
:10448000D202A091D302B091D4028A019B010823E9
:1044900019232A233B23C901B8011F910F910C94C2
:1044A000E5210F931F9341E050E060E070E004C00D
:1044B000440F551F661F771F8A95D2F78091D1024E
:1044C0009091D202A091D302B091D4028A019B01B3
:1044D000082719272A273B27C901B8011F910F91E7
:1044E0000C94E5210F931F930091D1021091D202F9
:1044F0002091D3023091D402602B712B822B932B0D
:104500001F910F910C94E5210F931F930091D102FD
:104510001091D2022091D3023091D40260237123F2
:10452000822393231F910F910C94E5210F931F93E6
:104530000091D1021091D2022091D3023091D40285
:1045400060277127822793271F910F910C94E521F3
:10455000089520E1929F800D1124E82FE695E695BD
:10456000E695877051E001C0550F8A95EAF785E01E
:10457000E89FF0011124E156FD4F20E030E070E0AB
:104580004081CB01022E02C0969587950A94E2F7EE
:104590008170819584278523842781932F5F3F4FE6
:1045A0002530310569F7089520E1929F800D11248F
:1045B000682F669566956695982F977085E0689F39
:1045C000B001112440E050E080E0FB01E40FF51F52
:1045D000E156FD4F208130E0092E02C03695279527
:1045E0000A94E2F721703327042E01C0220F0A94A7
:1045F000EAF7822B4F5F5F4F4530510531F7089541
:10460000BF92CF92DF92EF92FF920F931F93CF93BF
:10461000DF938C01C090D102D090D202E090D302FF
:10462000F090D4028091D5029091D602A091D70249
:10463000B091D802C82AD92AEA2AFB2ACFE1D0E0D1
:10464000D701C6010C2E04C0B695A79597958795FE
:104650000A94D2F780FD04C0219790F7B12C07C0CF
:10466000BC2EB8018C2F0E949A070197A9F38B2DBD
:10467000DF91CF911F910F91FF90EF90DF90CF903E
:10468000BF900895CF93DF93EC010E940023BE01F9
:104690000E949A07DF91CF9108951F93CF93DF93E4
:1046A000EB0190916602992321F0CB010E944223F5
:1046B00013C0882349F0CB010E940023182F682FD4
:1046C000CE010E94A92204C0CB010E94D422182F3F
:1046D000BE01812F0E949A07DF91CF911F9108950B
:1046E0008091D90285958595859508958091D90207
:1046F000877008959091D902977081E009F480E065
:1047000008958091FD0208959091FD02892B809378
:10471000FD02089580959091FD0289238093FD020A
:1047200008951092FD0208959091FC02892B8093C8
:10473000FC02089580959091FC0289238093FC02ED
:1047400008951092FC0208959091FB02892B8093AA
:10475000FB02089580959091FB0289238093FB02D0
:1047600008951092FB0208958091DA020895089549
:104770000C94B7230C94B8239091DA02981721F087
:104780008093DA020C94BA2308958091DA02882388
:1047900029F01092DA0280E00C94BA230895E09197
:1047A0001601F09117018091FD028083E0911601BE
:1047B000F091170190818091FC02892B8083E09118
:1047C0001601F091170190818091FB02892B808363
:1047D0008091DA02882381F0E0911601F0911701AF
:1047E0009081892B808380911601909117010E94FE
:1047F000122581110E94C523809116019091170105
:104800000C9413180C94B72398E0899F90011124FD
:10481000262B2093D9020E940B228091D9028595E4
:10482000859585950C9402241092D90280E00C9411
:1048300002242091D902809582238093D902982F57
:10484000977079F430E0482F082E000C550B241790
:10485000350739F08595859585950E942C220C9415
:10486000142408959093DD018093DC0108958295CE
:10487000982F937344E0949F900111248C7C86952B
:104880008695282B822F8575880F2A7A2695822B6C
:104890000895CF93DF93D92F0E943724C82F8D2FEF
:1048A0000E9437242C2F30E0322F2227A901482BD9
:1048B000CA01DF91CF9108956FEF7FEF80E090E024
:1048C0000C94443380E090E00E94203321E08C3E41
:1048D0009E4F09F020E0822F089582E090E00C9432
:1048E000123383E090E00C941233CF9384E090E095
:1048F0000E941233C82F81E290E00E9412332C2FC5
:1049000030E0A901582BCA01CF910895CF93C92F48
:10491000682F84E090E00E9426336C2F81E290E0C3
:10492000CF910C94263386E090E00C941233682FDC
:1049300086E090E00C942633AB01BC018FE090E060
:104940000C943833AB01BC0183E190E00C94383314
:1049500060E070E0CB010C94A22460E070E0CB0139
:104960000E949C240C94A8246CEE7EEF80E090E0E2
:104970000E94443360E082E090E00E94263360E0D1
:1049800083E090E00E9426331092D5021092D60266
:104990001092D7021092D80260E084E090E00E946A
:1049A000263360E081E290E00E94263360E085E0FB
:1049B00090E00E94263360E086E090E00E9426337B
:1049C0006FEF87E090E00E94263340E050E0BA01AC
:1049D00088E090E00E94383360E08DE090E00E9433
:1049E000263340E050E0BA0188E190E00E9438337D
:1049F00060E087E190E00E94263340E050E0BA0199
:104A00008CE190E00E94383360E080E290E00E9408
:104A100026330C94AD240C94B424682F8EE090E0DF
:104A20000C942633FC01329680912A01882331F0C0
:104A30008091920387FF02C09EE101C096E080E072
:104A4000915028F021912223D9F38F5FF9CF089557
:104A5000662351F120912A012223E9F0209192034B
:104A600027FF19C0462F4695469546954E31E0F4EE
:104A7000677021E030E002C0220F331F6A95E2F731
:104A8000FC01E40FF11D828190E02823392381E0AD
:104A9000232B69F409C0FC01329608962191621714
:104AA00029F0E817F907D1F780E0089581E008952B
:104AB0009C01FC0132969FEF80E04191461789F0FE
:104AC0009F3F19F4411101C0982F8F5F8630A9F7DD
:104AD0009F3F39F0F901E90FF11D97FDFA956283C7
:104AE000089508959C012A5F3F4FFC0142814613BF
:104AF00001C01282019682179307B9F70895262FF5
:104B00002695269526952E3170F4FC01E20FF11DB5
:104B1000677021E030E001C0220F6A95EAF78281D8
:104B2000282B228308958091FE0280FF0CC01F92E3
:104B30006F938AEE98E09F938F930E9488060F9060
:104B40000F900F900F900895262F26952695269565
:104B50002E3178F4FC01E20FF11D677021E030E0A6
:104B600001C0220F6A95EAF72095828128232283CB
:104B700008958091FE0280FF0CC01F926F938CEC11
:104B800098E09F938F930E9488060F900F900F904C
:104B90000F90089520912A01222329F02091920359
:104BA00027FD0C947F250C94582520912A0122235F
:104BB00029F02091920327FD0C94A4250C947225D2
:104BC00020912A01FC013296222331F08091920338
:104BD00087FF02C08EE101C086E0DF011D928A9549
:104BE000E9F7089508950C94F2250C94F225CF93DB
:104BF0000E94F5250E94340A0E94F325C0E08C2F04
:104C00000E948909892B29F4CF5FC530C1F780E064
:104C100001C081E0CF9108950C94F2250C940C26EC
:104C20000E940E2680919803843009F43CC01092B3
:104C3000FF0220E488E190E00FB6F894A8958093F5
:104C400060000FBE2093600080E00E94401580E06D
:104C50000E94FA060E94FF108091000381110AC091
:104C600081E08093000380914A0381708093010367
:104C70000E946D120E940E2683B7817F846083BFDD
:104C800083B7816083BF7894889583B78E7F83BF15
:104C90000FB6F894A89580916000886180936000B9
:104CA000109260000FBE08950C94F2250E94B51D6D
:104CB0000E94C5130E9407180E94FA061092000372
:104CC0008091010381110E9408120E94DD100C9452
:104CD00054261F920F920FB60F9211248F939F9319
:104CE000AF93BF938091FF02811113C080918E0317
:104CF00090918F03A0919003B09191034196A11DD3
:104D0000B11D80938E0390938F03A0939003B09373
:104D10009103BF91AF919F918F910F900FBE0F9014
:104D20001F90189582E084BD93E095BD9AEF97BDE2
:104D300080936E0008952FB7F89480918E03909120
:104D40008F03A0919003B09191032FBF08959C0110
:104D50004FB7F89480918E0390918F03A0919003A8
:104D6000B09191034FBF821B930B089578941F92CB
:104D70000F920FB60F9211248F939F93AF93BF930F
:104D800080918E0390918F03A0919003B091910335
:104D90000196A11DB11D80938E0390938F03A09364
:104DA0009003B0939103BF91AF919F918F910F901A
:104DB0000FBE0F901F90189581E08093E00080E275
:104DC0008093D8001092C9008FE19EE40197F1F71B
:104DD00000C0000087E090EBDC018093A10390937A
:104DE000A203A093A303B093A4039CE088E10FB6B1
:104DF000F894A895809360000FBE90936000FFCF59
:104E00000C945C240E94340A8FE39CE90197F1F72B
:104E100000C000000E94340A80E00E94890980FFDF
:104E200004C00E9400270C94DC2608950E9462248E
:104E3000811102C00E940B250E946D248093FE0206
:104E40000E94752490939303809392030E9471248F
:104E5000682F70E080E090E00C94AB218091090312
:104E600080FF0BC060911D0185E0689FB001112497
:104E700075956795759567952BC081FF09C0609101
:104E80001D0185E0689FB00111247595679520C0CC
:104E900082FF07C060911D0185E0689FB001112469
:104EA00017C0909108039923D1F060911C019617C7
:104EB00088F720911D0185E0289F90011124929F81
:104EC000A001939F500D112470E0CA010E9453323B
:104ED0006038710540F46115710519F406C065E08C
:104EE00070E0862F08958FE7089581E008958091FE
:104EF000090380FF08C06091190170E075956795FE
:104F00007595679521C081FF06C06091190170E019
:104F10007595679519C082FF04C06091190170E012
:104F200010C090910803992399F060911801961789
:104F3000A0F780911901899FC001112470E00E949F
:104F400053326038710540F46115710519F406C0DB
:104F500061E070E0862F08958FE7089581E008955D
:104F6000803F21F40E942E27819504C0813F29F4BF
:104F70000E942E2780930D030895823F21F40E9402
:104F80002E27819504C0833F29F40E942E27809309
:104F90000C030895893F19F40E94772705C08A3FC2
:104FA00031F40E947727819580930E0308958B3FFB
:104FB00021F40E947727819504C08C3F29F40E9438
:104FC000772780930F030895843F21F480910B038A
:104FD000816017C0853F21F480910B03826011C06E
:104FE000863F21F480910B0384600BC0873F21F43E
:104FF00080910B03886005C0883F31F480910B03DA
:10500000806180930B0308958D3F21F48091090303
:1050100081600BC08E3F21F480910903826005C03E
:105020008F3F29F4809109038460809309030895D8
:10503000803F39F480910D0387FF6CC010920D03FF
:1050400069C0813F29F480910D031816BCF362C03A
:1050500090910C03823F29F497FF5CC010920C03DF
:1050600059C0833F19F41916CCF354C0893F41F459
:1050700080910E0318160CF04DC010920E034AC01A
:105080008A3F29F480910E0387FF44C0F6CF8B3FFF
:1050900039F480910F0387FF3DC010920F033AC08F
:1050A0008C3F29F480910F031816BCF333C0843F62
:1050B00021F480910B038E7F17C0853F21F48091EE
:1050C0000B038D7F11C0863F21F480910B038B7FF2
:1050D0000BC0873F21F480910B03877F05C0883F79
:1050E00031F480910B038F7E80930B0313C08D3FAF
:1050F00021F4809109038E7F0BC08E3F21F48091B3
:1051000009038D7F05C08F3F29F4809109038B7FB0
:105110008093090380910C0381110EC080910D03CF
:1051200081110AC080910E03811106C080910F0386
:10513000811102C01092080308958091FE0283FF3E
:105140007EC08FE299E00E94EF0580910B031F92D1
:105150008F938AE299E09F938F930E94880688E25A
:1051600099E00E94EF0580910C03282F082E000C77
:10517000330B3F938F9385E299E09F938F930E9427
:10518000880683E299E00E94EF0580910D03282FA5
:10519000082E000C330B3F938F9380E299E09F938E
:1051A0008F930E9488068EE199E00E94EF0580911E
:1051B0000E03282F082E000C330B3F938F938BE1A7
:1051C00099E09F938F930E94880689E199E00E945D
:1051D000EF0580910F03282F082E000C330B3F930F
:1051E0008F9386E199E09F938F930E94880683E1D5
:1051F00099E00E94EF05809108031F928F9380E150
:1052000099E09F938F930E9488068EE099E00E9418
:10521000EF05809109031F928F938BE099E09F9394
:105220008F930E94880688E099E00E94EF058DB771
:105230009EB74C960FB6F8949EBF0FBE8DBF8AE006
:1052400093E00E9468180E949B2690930703809326
:1052500006030895CF93DF9300D000D000D0CDB7E0
:10526000DEB786E0EAE0F3E0DE01119601900D92F0
:105270008A95E1F780910C03811105C080910D039F
:10528000882309F47AC080910403909105030E9459
:10529000A726AC0190910803992339F020911E01B3
:1052A00030E02417350758F068C020911F018AE0CC
:1052B000289F900111242417350718F05EC09F3FE6
:1052C00019F09F5F9093080310920E0310920F0342
:1052D00080910C03181624F40E942E2780930C034F
:1052E00080910C0387FF05C00E942E278195809333
:1052F0000C0380910D03181624F40E942E2780932E
:105300000D0380910D0387FF05C00E942E27819514
:1053100080930D0330910C033323E1F020910D03B2
:105320002223C1F045EB3403C0011124992319F065
:1053300090930C0303C081E080930C0335EB2303AF
:10534000C0011124992319F090930D0303C081E04B
:1053500080930D030E949D2880910603909107037E
:10536000909305038093040386E0FE013196AAE042
:10537000B3E001900D928A95E1F780910E038111BF
:1053800005C080910F03882309F47AC0809102033D
:10539000909103030E94A726AC01909108039923E2
:1053A00039F020911A0130E02417350758F068C011
:1053B00020911B018AE0289F9001112424173507B2
:1053C00018F05EC09F3F19F09F5F90930803109202
:1053D0000C0310920D0380910E03181624F40E9402
:1053E000772780930E0380910E0387FF05C00E94EC
:1053F0007727819580930E0380910F03181624F46C
:105400000E94772780930F0380910F0387FF05C0C9
:105410000E947727819580930F0330910E033323E9
:10542000E1F020910F032223C1F045EB3403C001CA
:105430001124992319F090930E0303C081E0809307
:105440000E0335EB2303C0011124992319F0909327
:105450000F0303C081E080930F030E949D28809179
:10546000060390910703909303038093020386E061
:10547000FE013196AAE0B3E001900D928A95E1F722
:1054800026960FB6F894DEBF0FBECDBFDF91CF9149
:105490000895EAE0F3E086E0DF011D928A95E9F7DE
:1054A0001092080310920903089580913303089520
:1054B0009FB7F894109212039FBF90919803943075
:1054C00009F057C09091E9009F703091EC00232FB4
:1054D000217030FD20E8922B23E02093E9002091F9
:1054E000EB0020FF43C02091EE0027FF3FC020913A
:1054F0001003222321F02091E80025FF37C01092ED
:10550000100326E03091E80035FD15C03091980376
:10551000343061F53091EB0035FD28C0215021F485
:1055200081E08093100322C0EFE9FFE03197F1F7AB
:1055300000C00000E7CF8093F1008091E80085FD76
:105540000AC08091E80080FFFCCF8091E8008E7750
:105550008093E80006C08FB7F89421E020931203EF
:105560008FBF9F709093E90080E008959F709093A3
:10557000E9008FEF0895CF93DF9300D01F92CDB74E
:10558000DEB790919803943019F589837B836A8301
:1055900082E08093E9008FEF9091E800815095FDC3
:1055A00006C095ED9A95F1F700008111F5CF809135
:1055B000E80085FF0DC040E050E063E070E0CE0100
:1055C00001960E94782D8091E8008E778093E80004
:1055D0000F900F900F90DF91CF910895CF93DF93AD
:1055E000EC010E945B2D823011F0843031F4BE0159
:1055F00084E0DF91CF910C94BB2ADF91CF91089585
:10560000BC0183E00C94BB2ACF93DF93EC010E9492
:105610005B2D823011F08430F9F482E08093E90050
:105620008FEF9091E800815095FD06C095ED9A9519
:10563000F1F700008111F5CF8091E80085FF0CC0E3
:1056400040E050E066E070E0CE010E94782D80914D
:10565000E8008E778093E800DF91CF910895CF9393
:10566000DF93EC010E945B2D823011F08430D9F57C
:1056700080912A01882339F08091920387FF03C02B
:1056800060E282E002C068E081E08093E9008FEF91
:105690009091E800815095FD06C095ED9A95F1F73F
:1056A00000008111F5CF8091E80085FF1CC080913A
:1056B0002A01811105C040E050E068E070E003C0BD
:1056C00070E040E050E0CE010E94782D8091E8002B
:1056D0008E778093E80080E2FE01A3E1B3E00190C1
:1056E0000D928A95E1F7DF91CF91089587E799E0D0
:1056F0000E94EF0580919703811109C00E94092F34
:105700000E94662F8091E20084608093E2000895F9
:1057100083E799E00E94EF051092970308958FE6C2
:1057200099E00C94EF058BE699E00C94EF0587E681
:1057300099E00E94EF050C945626209111032F5FEB
:10574000822F62E30E942532992319F020931103DE
:1057500008951092110380911203882371F18091B2
:105760009803843041F58091E9008F702091EC001E
:10577000922F917020FD90E8892B93E09093E9009F
:105780009091EB0090FF14C09091EE0097FF10C035
:105790009091E80095FF03C01092F100F9CF90912D
:1057A000E80090FF05C09091E8009E779093E80094
:1057B0008F708093E90010921203089542E061EC2B
:1057C00081E00E94822E42E261EC82E00E94822E01
:1057D00042E261EC83E00C94822E80919A03833044
:1057E00009F460C030F4813071F0823009F499C05E
:1057F00008958A3009F485C08B3009F46BC0893074
:1058000009F0A7C020C080919903813A09F0A1C096
:105810008091E800877F8093E80080919D039091BC
:105820009E03892B21F460E283E193E003C060E0F2
:1058300080E090E070E00E94C32D8091E8008B77BB
:105840008093E800089580919903813209F081C026
:1058500080919D0390919E03029708F07AC08091F9
:10586000E800877F8093E8008091E80082FD05C012
:10587000809198038111F8CF6CC02091F300809142
:10588000F20090E0922B029729F48091F1008B7F37
:10589000813021F48091F100809333038091E800FE
:1058A0008B7753C080919903813A09F052C080915F
:1058B0009D0390919E03892B09F04BC08091E800D5
:1058C000877F8093E8008091E80080FFFCCF809183
:1058D0002A0136C0809199038132D9F580919D03C8
:1058E00090919E03892BA9F58091E800877F809392
:1058F000E8000E94B72E80919B0380932A010C94AC
:10590000B51D80919903813221F58091E800877F50
:105910008093E8000E94B72E80919C03809334030B
:10592000089580919903813AA1F48091E800877FDE
:105930008093E8008091E80080FFFCCF80913403E1
:105940008093F1008091E8008E778093E8000C94BA
:10595000B72E089584B7877F84BF0FB6F894A895B3
:1059600080916000886180936000109260000FBE9B
:1059700090E080E80FB6F894809361009093610006
:105980000FBE0E94B2180E94092F0E94662F8091BC
:10599000E20084608093E20088E59AE20E9432246B
:1059A00078940E94FA310E94BC1880E291E00E9433
:1059B000021886E599E00E94EF05809198038530F2
:1059C00089F482E599E00E94EF050E9410268091FB
:1059D0009603882391F30E94F725882371F30E9490
:1059E000622DEBCF0E94F018E8CF0C94F72C292FF2
:1059F000332723303105C9F060F42130310581F0BF
:105A00002230310509F047C08BE590E029EA39E002
:105A100046C02132310511F12232310561F13BC01E
:105A200082E190E024E03AE03AC099278130910584
:105A300061F040F08230910559F0039761F5EBE792
:105A4000F9E008C0E5EAF9E005C0E3E9F9E002C0E1
:105A5000E1E8F9E0849190E09F0121C06330710595
:105A6000D0F4660F771FFB01EA52FE4F208131818F
:105A700089E090E014C06330710568F4FB01EE0F1B
:105A8000FF1FE053FE4F20813181FB01E353FE4FA6
:105A9000808190E004C080E090E020E030E0FA01F6
:105AA00031832083089580919803843011F081E040
:105AB000089582E0089580913503811102C00C940D
:105AC000532D089580E189BD82E189BD09B400FEAE
:105AD000FDCF8091D8008F7D8093D8008091E00029
